:020000022000DC
:10600000B02C0020D17B0200E1E50200BD7B020044
:10601000BD7B0200BD7B0200BD7B020000000000D2
:10602000000000000000000000000000E17C020011
:10603000BD7B020000000000517C0200BD7B02001D
:10604000F17E0200F17E0200F17E0200F17E02008C
:10605000F17E0200F17E0200F17E0200F17E02007C
:10606000F17E0200F17E0200F17E0200F17E02006C
:10607000F17E0200F17E0200F17E0200F17E02005C
:10608000F17E0200F17E0200F17E0200F17E02004C
:10609000F17E0200F17E0200F17E0200F17E02003C
:1060A000F17E0200F17E0200F17E0200F17E02002C
:1060B000F17E0200F17E0200F17E0200F17E02001C
:1060C000F17E0200F17E0200F17E0200F17E02000C
:1060D000F17E0200F17E0200F17E0200F17E0200FC
:1060E000F17E0200F17E0200F17E0200F17E0200EC
:1060F000F17E0200F17E0200F17E0200F17E0200DC
:1061000053B94AB9002908BF00281CBF4FF0FF311E
:106110004FF0FF3000F00CB8ADF1080C6DE904CE83
:1061200000F01AF8DDF804E0DDE9022304B070475E
:10613000704700BF10F8012B11F8013B012A28BF5E
:106140009A42F7D0D01A7047034613F8012B002A61
:10615000FBD1181A013870472DE9F04786468C4666
:106160000846089E154674461946002B40F0C2802A
:106170008542B2FA82F245D94AB1C2F1200300FA4F
:1061800002FC2EFA03F3954043EA0C0C94404FEACC
:10619000154EA8B2BCFBFEF8230C0EFB18CC08FB76
:1061A00000F943EA0C43994528D9EB1808F1FF3769
:1061B00004D2994502D9A8F102072B44A3EB0903A5
:1061C000A4B2B3FBFEFC0EFB1C330CFB00F044EA54
:1061D0000344A04214D92C190CF1FF3304D2A0427D
:1061E00002D9ACF102032C44241A43EA07401EB141
:1061F000D440002334607360BDE8F0874746DDE794
:106200006346F1E792BB431B01214FEA154EAFB243
:10621000B3FBFEFC200C0EFB1C330CFB07F840EA22
:106220000343984562D9EB180CF1FF3004D298452E
:1062300002D9ACF102002B44A3EB0803A4B2B3FBD8
:10624000FEFC0EFB1C330CFB07F744EA0344A74299
:106250004ED92C190CF1FF3304D2A74202D9ACF16C
:1062600002032C44E41B43EA0040C0E7C2F12003D0
:1062700020FA03F1954090402EFA03F303434FEACE
:10628000154EAFB2B1FBFEFC0EFB1C10190C0CFB43
:1062900007F841EA0041884504FA02F422D9691856
:1062A0000CF1FF3004D2884502D9ACF10200294438
:1062B000A1EB08019BB2B1FBFEFC0EFB1C110CFB19
:1062C00007F743EA01439F420ED9EB180CF1FF3167
:1062D00004D29F4202D9ACF102012B44DB1B41EAFC
:1062E000004192E76046E3E76146F7E76046A3E7CF
:1062F0006346B7E7834206D916B9002108467BE713
:10630000C6E900E0F9E7B3FA83F78FB9834201D316
:10631000724508D8BEEB020460EB030301209C46E3
:106320001EB9002168E73846FAE7C6E9004CF8E7ED
:10633000C7F1200CBB4022FA0CF41C432EFA0CF1DE
:1063400020FA0CF3B84001434FEA14490EFA07F55E
:10635000B3FBF9F81FFA84FE09FB18300B0C08FB9D
:106360000EFA43EA00439A4502FA07F240D9E318CD
:1063700008F1FF3004D29A4502D9A8F10200234463
:10638000A3EB0A0389B2B3FBF9F809FB183308FB46
:106390000EFE41EA03418E452CD9611808F1FF3306
:1063A00004D28E4502D9A8F10203214443EA0040F9
:1063B000A0FB0298A1EB0E014145CE46434602D315
:1063C00006D14D4504D2B9EB020E68EB0403013847
:1063D000002EA6D0B5EB0E0261EB030101FA0CFC16
:1063E00022FA07F34CEA0303F940C6E9003198E7C3
:1063F0004046C5E74346D9E7014805F083BC00BFE6
:1064000068000020014805F07DBC00BF5800002056
:1064100007B508F0C1FF4FF47A72A0FB020302FB3C
:106420000131C00B074A40EA4140106000234FF49D
:1064300000420548CDE9002306F0B4FA002003B07D
:106440005DF804FB30080020F8010020014B1878AB
:1064500000F034B94E170020044B1A78824202D063
:106460001870FFF7F3BF0020704700BF4E170020E1
:1064700008B508F091FF4FF47A72A0FB020302FB0B
:106480000131084AC30B126843EA41439B1A47F2A1
:106490003052934204DDBDE808400120FFF7DCBF25
:1064A00008BD00BF3008002008B508F075FF4FF4A4
:1064B0007A72A0FB020302FB0131C00B044A40EADE
:1064C00041401060BDE808400020FFF7C5BF00BF95
:1064D00030080020F8B5044610B900252846F8BD5C
:1064E0000378002BF9D00F4E0F4FBE420FD30D4E45
:1064F000BE42F2D2306808F036FC30B13568214631
:106500002868FFF717FE0028E8D00436F0E7306867
:1065100008F029FC18B135682B68A342DED0043698
:10652000E3E700BFE4090300F009030070B5194C6C
:10653000194D8CB00022002303A9204605F012F962
:1065400008B10CB070BD2B68059E5868DDE90312D8
:1065500007F099FC0028EDDBFF238DF81830B6FA20
:1065600086F35B0907908DF8203008F015FF4FF493
:106570007A72A0FB020302FB0131C00B40EA4140EA
:10658000C90B8DE8030006ABCDE90A010FCB00F083
:10659000A5F8CFE788020020CC0800201FB50A4CE0
:1065A0002468A46884420DD183F00103CDE901126F
:1065B000039306480022002301A905F07BF8044854
:1065C00005F0A0FB04B010BDCC080020880200201C
:1065D000BC08002038B5044628B3144D2B6883420C
:1065E0001FD02BB1986818B183685B6803B19847D6
:1065F0000F49104B8C4214BFED21002122220020B4
:1066000007F05BFC00280DDBA0682C6048B18368B4
:1066100009491B6898472B68986883689B6803B191
:106620009847002038BD6FF01200FBE7CC0800202F
:1066300000010300340800209D6502000148FFF7B7
:10664000C9BF00BF0001030008B50749074808F0AB
:106650003FFD074A002342F8043B0133222BFAD1C5
:10666000BDE80840FFF7EABF2D650200BC08002026
:1066700034080020F8B50F4D0F4E761B07460C4628
:1066800005EBC105C6F3C706A64201DC00200CE0FD
:106690002A683B689A4209D13C716B6838461B688E
:1066A000984718B1431E012BF0D9F8BD01340835C5
:1066B000EAE700BF9C060300B40603001FB50023F1
:1066C000CDE90233044B8DF80C0001A8019307F0CB
:1066D00001FC05B05DF804FB1C01030084B030B57B
:1066E00089B00CAC84E80F00002301930CAD084B7B
:1066F00000930FCD02AC0FC495E8030084E80300BB
:10670000684607F0E7FB09B0BDE8304004B07047C9
:10671000200103000268034B9A420CBF083000209E
:10672000704700BF200103001FB50023CDE90233ED
:10673000044B8DF80C0001A8019307F0CBFB05B0CA
:106740005DF804FB2801030082B038B504A981E894
:106750000C000546114804F011FE0446A0B16B6818
:10676000012B0CD0022B05D0A3B9BDE8384002B0F4
:1067700007F0C6BB07F0CBFB00282046F5DCBDE8E0
:10678000384002B007F0B5BB6FF00400BDE83840F8
:1067900002B070476FF08500F8E700BF46050300C0
:1067A00082B010B502A981E80C0004460B4804F041
:1067B000E5FD78B16368022B04D00020BDE81040ED
:1067C00002B0704707F0A3FB0028CCBF00200120D7
:1067D0006060F2E76FF00400F0E700BF46050300D9
:1067E00073B5194C194EB442254602D36FF012000E
:1067F00008E02B689B68043433B9154C2368AB421E
:1068000011D1002002B070BD9847C0F307238DF866
:1068100004008DF80530C0F30743C0B28DF8063090
:106820000028E0D0E9E723B11B685B680BB10020CA
:1068300098472B6825605B68002BE2D0012002B0EE
:10684000BDE87040184700BFF0090300F0090300DD
:10685000D008002007B5094B01911B68834207D17E
:106860009DF8063033B903B05DF804EBFFF7B8BF0D
:10687000FFF7B6FF002003B05DF804FBD00800204E
:1068800070B5094C094D0A4EAC42234603D3BDE80E
:106890007040FFF7A5BF1B68DB680434002BF3D002
:1068A00030469847F0E700BFF0090300F009030005
:1068B00055680200054B1B6823B11B6813B11B68A8
:1068C00003B118476FF01200704700BFD0080020D6
:1068D00008B5044800F046FD002818BF6FF0150009
:1068E00008BD00BF11690200084B1B780B2B4FF04D
:1068F00001000AD8984010F4CD6F05D110F4016F53
:106900000CBF01200020704702207047E4010020E6
:106910000A2808B5024613D00A4B0B491870FFF736
:10692000E3FF02280AD10B78032A08BF43F00103D2
:106930000B70BDE80840054805F0E4B90023F7E70F
:1069400008BD00BFE40100204F17002078000020A0
:10695000014B1B68184700BF8800002030B585B088
:1069600004460D4610220021684609F086F80223ED
:106970008DF802302A46044B01932146684606F002
:106980001FF905B030BD00BF5169020080B5054652
:106990000E461746984605F027FD034609F076F89F
:1069A000DFF81890044649F8003042463046394630
:1069B000A84754F8090001F035F900BF08000000AD
:1069C00008B50446EFF31183202383F31288BFF345
:1069D0006F8F03F007FE204601F012F9024807F01E
:1069E0008FFC07F00FFEFCE77D0503002DE9F04763
:1069F000058B04462807904611D4022905F00705A7
:106A000040F0CC80204607F0A3FC78B10138218B00
:106A1000042811D8DFE800F0C2106D859500012927
:106A20000CBF45F0100545F02005258388F311883B
:106A3000BFF36F8FBDE8F08701F0070AAA4500F0A9
:106A4000A5800027B9463E46A368002B00F0BC8015
:106A500041F00801218388F31188BFF36F8FA1688B
:106A6000002900F0BA800D68002900F0B680D1F846
:106A70000480334652462046C047002D76D02B680E
:106A800029461D46F0E701F007035A1F012A1BD8CB
:106A9000002221F00701062B276889B2C4E90022F1
:106AA00009D13B4603E0628B013262831B68002BF5
:106AB000F9D141F002012183204607F049FC00286A
:106AC0007AD041F0200176E0042B0AD121F00701B1
:106AD00089B22183204607F03BFC10B141F0200130
:106AE0002183218B01F0070AAA454FD00027B94620
:106AF000AAE7236921F0070141F00601062DD3F82A
:106B0000009021832DD1B9F1000F3FD041F0080151
:106B1000218388F31188BFF36F8F3A492046C84715
:106B200029E021F00701236941F0040189B2042D15
:106B3000D3F804902183E6D000273E464FF0040AA4
:106B400082E721F00701236941F0050189B2052D93
:106B5000D3F808902183D6D000273E464FF0050A8F
:106B600072E700273E464FF0060A6DE72B4687E79F
:106B7000B9F1000FD1D1EFF31188202383F31288EC
:106B8000BFF36F8F238B23F008032383258BEA0643
:106B90002ED525F01003238305F007056669218BA8
:106BA000002EBFF670AF00232768C4E9003321F040
:106BB000070141F001012183218B01F0070AAA4559
:106BC0004FF000097FF440AF002F9CD041F0080146
:106BD000218388F31188BFF36F8F002FC8D03D68E1
:106BE000394633465246204607F0DEFB2F46F4E78F
:106BF000AB067FF51BAF25F02003238305F00705C7
:106C000000E700BFD5E30200014B0360002070479E
:106C10006C010300F0B40C4B0C4E5F6A0C4BB3429A
:106C200003D36FF08500F0BC70475D68BD4209D3A7
:106C30001C693CB195F802C00579AC4502D12346E8
:106C4000F0BC18472433EAE7D40800202D030020C5
:106C50002D0300202DE9F047134CDFF85080DFF8BA
:106C6000509005460E461746444503D36FF0850005
:106C7000BDE8F0876268D9F824309A4212D3A3693C
:106C800083B190782979884205D13A463146284621
:106C9000BDE8F04718475279012A03D13A463146F8
:106CA000284698472434DFE72D0300202D030020D9
:106CB000D40800202DE9F0410B4CDFF83080054668
:106CC0000E461746444502D36FF0850009E063691C
:106CD0000BB92434F6E73A4631462846984700284F
:106CE000F7D1BDE8F08100BF2D0300202D03002067
:106CF00010B5044607F0DEFC10F1780F00D050B953
:106D0000054A204607F03CFCD2F8C43023EA0003D1
:106D1000C2F8C430002010BDD4080020024B00226D
:106D20001A605A60704700BF8F09002070B50B4B86
:106D30000B4CA34201D3002070BD196A1E7F0022B4
:106D40000439D5B2AE4201D82433F2E7013211F84A
:106D500032508542F5D10120EEE700BF2D0300201F
:106D60002D03002008B509480378C3F341130A3303
:106D700050F823303BB100F1080200F110019847B0
:106D8000C043C00F08BD1846FCE700BFD408002070
:106D900004282DE9F14FDFF8A09004460F4616D0E5
:106DA00001282DD1DFF88C8098F8B93043B300F07A
:106DB00061FD1F4D4D4520D2D5F820B04FF0000A9F
:106DC0002B7F5FFA8AF6B34204D82435F2E7FFF747
:106DD000A5FFE7E70BEBC6060AF1010A307907F0D9
:106DE00069FC0246307907F0CBFBD8F8C430002AA2
:106DF00023EA0003C8F8C430E2DA002388F8B93087
:106E00000B4D4D4508D30B4B1B6A6BB139462046E1
:106E100001B0BDE8F04F1847EB681BB13A46214678
:106E2000284698472435ECE701B0BDE8F08F00BF55
:106E30002D030020D40800202D03002073B5C4B218
:106E400063060D468DF8074007D02046FFF76EFF1A
:106E500078B10D4B93F8BA0058B10B4E204655B19E
:106E600001F0A2FDF3691BB10DF10701082098475D
:106E7000012002B070BD01F0BFFDF369002BF7D017
:106E80000DF107010920F2E7D408002073B58678D8
:106E90008DF80060037942791C4C43EA0223ADF877
:106EA0000230C378304603F003038DF8043007F056
:106EB00067FBD4F8C430184205460BD0304600F0CA
:106EC000BBFC3046FFF714FF08F04DF910B99620CF
:106ED00005F048FA684601F043FD10F1780F03D041
:106EE00010B1002002B070BD9DF8000001F0C0FD9F
:106EF00010F1780F01D00028F3D1D4F8C43001206C
:106F00002B4384F8B900C4F8C430EBE7D408002060
:106F10002DE9F047A34EB36904460F461546FBB969
:106F2000237803F01F03012B00F09D80022B00F05B
:106F3000048133BB94F900002A686178002834DAB0
:106F4000062912D008292BD0D9B90123137051700A
:106F500096F8C3305B0043F00103137002232AE16B
:106F600098470028DCD100200DE06288100A011F3C
:106F70000129844605D9072803D8716AD2B20C7852
:106F80001CB96FF01500BDE8F0874E78664503D157
:106F90009A4200F00B8101332144F0E70B780AE1BB
:106FA00096F8BA301370012305E101390829E8D8B1
:106FB00001A353F821F000BF51700200836F02005B
:106FC0005F700200836F0200DD6F0200836F0200BA
:106FD000836F0200836F0200E96F0200A07801F066
:106FE000ADFC0028BFD0CCE76388756A63BBFFF7B0
:106FF00095FE638886F8BA30F369002BB3D06A49EE
:1070000003209847AFE76B78042B10D0052B11D0E5
:10701000022B04D16F796388BB4208BF01202B7813
:107020001D442B78002BEED10028AAD0DFE795F87D
:107030000380F4E76388BB42F1D1B8F1000FEED1D1
:107040002846FFF723FFEAE7FF270020B846E8E7D6
:107050006388012B95D1002386F8C33083E76388CA
:10706000012B8ED1F8E796F8BA30D5F800C0002B86
:1070700087D0756AA38894F804E02A46107800281F
:107080003FF47FAF5178022904D192F80480F04593
:1070900000F293800244F1E78CF800208CF8012084
:1070A000396060E7154494E00B2A7FF46AAF00274B
:1070B0004FF0FF08C146BA4606E06B78042B0FD0AC
:1070C000052B21D02B781D442B78002BF5D1F369AB
:1070D00013B1514607209847002F7FF444AF50E783
:1070E00095F80280A38895F803909845EAD16388C3
:1070F0009945E7D1B8F1070F1CD806EB0803AA465B
:1071000083F8BB900127DDE7A3884345DAD1A37854
:107110004B450AD0AF78384600F08EFB3846FFF773
:10712000E7FDB0FA80F77F09CCE72846FFF7AEFE0F
:107130000746C7E7AA460027C4E794F9002063780A
:10714000002A18DA002B7FF41CAF24792D6863061F
:107150000AD02046FFF7EAFD00283FF412AF96F868
:10716000BA30002B3FF40DAF2946204601F064FCF5
:1071700000236B70F2E6012B08D0032B7FF401AFE4
:107180006388002B7FF4FDAE012103E061880029B4
:107190007FF4F7AEA088FFF751FE00287FF4E3AE3E
:1071A000EFE600BFD40800208E09002002282960E5
:1071B0007FF4F4AE4B883B60D5E694F9000062782A
:1071C0000028BFF671AF002A3FF466AF0A2A7FF4A9
:1071D000D8AE2A78002A3FF4D4AE697804297FF427
:1071E00061AFA9788B427FF45DAF072B96BF9B19E7
:1071F000002393F8BB308CF80030D4E613B5164C5E
:10720000237DF3B9E268A168019201AB802007F009
:10721000C5F9019AA3681344A360E3689B1AE3606D
:107220006BB962B12369E2889A4208DD94F8C820FC
:1072300093FBF2F102FB11330BB90123237502B06A
:1072400010BD00231A4619468020237502B0BDE800
:10725000104001F037BC00BFD408002030B585B025
:10726000002302460D460193002858D1002935D14C
:1072700008220B460DEB020107F035FA002804DA6C
:10728000802001F091FB05B030BD2A4C029A2260AB
:10729000039A626004F13802A2609DF90820BDF8EB
:1072A0000E302575002AC4E903550ADB802B04D96A
:1072B000802001F079FB0020E3E713B1C4E9033338
:1072C000E1E7FFF74FFD0028DAD0E28823699A4210
:1072D000D4BFE260E360FFF791FFD4E7154CD4E937
:1072E0000215002D01AB04DC07F0FDF90028CADA15
:1072F000C6E72A4607F0F7F90028D9DB019AA36808
:107300001344A360E3689B1AE360002BBBD104F134
:107310003803A360FFF726FD0028DCD1B0E7802802
:10732000B1D1044BDA68002AD5D11B7D002BD2D114
:10733000A9E700BFD4080020054B064A9A62064A16
:10734000DA62064A1A63064A58629A610020704758
:10735000D4080020116F0200156C0200B56C020009
:10736000556C02002DE9F3410446474D47484FF064
:10737000FF334FF0FF3204F057FA95F8B830002B86
:107380007BD16B6A83B142482C62E8616E6A01F07E
:10739000B3FC01F0A1FA041E10DA3C4804F0BCFA78
:1073A000204602B0BDE8F08100F0BEF8FFF7C4FF50
:1073B0006B6A002BE7D14FF0FF34EEE700F07CFA68
:1073C000041EEADB7378012B5AD1F379002B57D0D6
:1073D0000026684685F8C830ADF802308DF80460A4
:1073E0008DF8006001F0BCFA041ED6DB80276846E9
:1073F0008DF8007001F0B4FA041ECEDB254930464A
:1074000001F066FC041EC8DB2249384601F060FC2E
:10741000041EC2DB204CDFF8848044451AD30020D0
:1074200001F026FB041EB8DBD5F8C430802043F001
:107430000103C5F8C43001F01BFB041EADDBD5F819
:10744000C43043F48033C5F8C430012385F8B83024
:107450000024A2E7276A0026227FF3B29A4201D8CD
:107460002434DAE707EBC30257F83310107901F040
:107470002FFC01360028EFD09DE76FF077048CE7F2
:107480006FF0150489E700BFD40800204C020020EB
:10749000916D02005D7202002D0300202D0300207B
:1074A00030B51F4B8BB005AA03F110051868596859
:1074B000144603C40833AB422246F7D11B7823702D
:1074C0001022002101A808F0D8FA12220021154844
:1074D00008F0D3FA102101A807F009FA00281BDDF3
:1074E0000828B8BF0820093801AB0E491A18002037
:1074F00012F8013F0AAC04EB131403F00F03283316
:107500006B44013014F8144C13F8143C0C70082828
:107510004B7001F10201EBD102480BB030BD00BF4E
:10752000A6050300511700202DE9F04F724B93F888
:1075300000B087B0BBF1000F03D0704807B0BDE8C2
:10754000F08F6E4C00264FF0011AB0463546B1461A
:1075500023783BB96A4B02349C42F3D1664A01233B
:107560001370EAE76378052B1BD8DFE803F08E037E
:10757000C38E1D39402304A88DF810B0ADF8123029
:107580008DF814B007F081F840B1082304A8ADF8D5
:10759000123007F07AF808B1ADF812B0BDF8123029
:1075A000E37123781C44D3E7E378002BF9D1A37867
:1075B0006BB108F101085FFA88F8F2E76B689C424A
:1075C00007D024354F4B9D42F8D30020B6E74E4DEF
:1075D000F8E7AB68002BECD0414620469847E8E737
:1075E000002DF2D000222B7F9A42EED2296AA07899
:1075F00001EBC2010B79984201D00132F3E7012778
:10760000E07800F003008DF81400207994F805C0AC
:1076100040EA0C20ADF8120094F902000028FBB2F9
:1076200028DA07F110004FF0010C0CFA00F010EA14
:107630000A0F26D143F080008DF8100004A8CDE990
:107640000213019207F021F8DDE90121039BC0B983
:107650009DF81020A27012F0800F18BF10330A712D
:1076600018BFDBB24FF0010214BF9A40BA404AEA99
:10767000020A96E70120B84010EA0A0F01D1184625
:10768000DAE70137102FBBD1B7E7032E1AD1FFF786
:1076900007FF074650B1FEF757FD024630B11028EC
:1076A000A8BF10223946A01C08F0D9F923786FF042
:1076B0000201E218091B04EB5303D14213D5013632
:1076C000F6B26EE7002EF1D1B9F1000F3FF47DAFB5
:1076D000A4EB090389F80230C3F3072389F80330C8
:1076E00089F80480EBE702F801BC13F8010902F8FD
:1076F000020DE2E7A14654E750170020D002002017
:107700002D0300202D0300202D03002010B5094B70
:1077100000211A461C78844204D15C6814B102EB43
:10772000811010BD0131042903F14003F2D1002082
:10773000F7E700BFA00900202DE9F34150F8283CED
:1077400010F82C6C103304460AD1036950F8202C31
:10775000980736D5D2B9590715D5002344F8283CE7
:1077600054F8283C10330BD054E9077554F8148CA6
:1077700007F0F9FC00284FD02E48214607F0C4FC42
:1077800002B0BDE8F08143F00403236154F8241CE7
:1077900001AB304606F002FF10B16FF01503DDE7D4
:1077A000019A54F8243C134444F8243C54F8203CF7
:1077B0009B1A44F8203C54F81C3C134444F81C3CED
:1077C000CEE754F8241C01AB304601F0F7F900284D
:1077D000E3D1019D54F8243C2B4444F8243C54F854
:1077E000203C5B1B44F8203C54F81C3C2B4444F8E0
:1077F0001C3C002DB1D0304601F084FAB5FBF0F30B
:1078000003FB1055002DA8D154F8203C002BA4D028
:10781000304601F01BFAA3E744F8180CA4F110005D
:1078200004F0FCF8002DABD0424639463046A8475C
:10783000A6E700BF7006002010B5EFF311842023E7
:1078400083F31288BFF36F8FFFF760FF50B1436877
:10785000103307D16FF08B03436000F12C01044813
:1078600007F052FC84F31188BFF36F8F10BD00BF87
:1078700070060020F8B50E4C04252027EFF3118682
:1078800087F31288BFF36F8F6368103307D16FF0EF
:107890008B030848636004F12C0107F035FC86F384
:1078A0001188BFF36F8F013D04F14004E6D1F8BDAC
:1078B000A00900207006002070B50A4C0A4E002571
:1078C0003146204607F004FC0122A4F110001146C5
:1078D000013507F07FFB042D04F14004F0D10020B6
:1078E00070BD00BFCC0900203977020030BFFFF720
:1078F000FDBF00BF2DE9F0410B4EDFF8348006EBF1
:107900000807CC1B054632460849204608F0A7F870
:10791000A01942460021083C08F0AFF82C6707F197
:107920000800BDE8F08100BF00000000BCFD0200BF
:1079300004000000054B9A699B689A421FBF044AE5
:10794000536843F080535360704700BFEC1600202B
:1079500000ED00E0134B9A6A12F0007F9A6A14BFA0
:107960001E201D2012F0807F9A6A18BF1F2012F47B
:10797000002F9A6A18BF212012F4802F9A6A18BF2C
:10798000222012F4003F9A6A18BF232012F4803F8D
:107990009A6A6FEA02426FEA12429A6218BF242082
:1079A000704700BF00ED00E010B5194B0246986A21
:1079B0009C6A10F4805F14BF1720162014F4006F27
:1079C0009C6A18BF1820A40509D5986B986A000412
:1079D00004D51AB19A6A22F400429A6219200C4B1B
:1079E0009A6A12F4806F9A6A18BF1A20D2050CD4D2
:1079F0009B6A13F4005F18BF1C20054A936A43F486
:107A00007F43936200230B7010BD1B20F5E700BF7E
:107A100000ED00E010B51C4B0246986A9C6A10F01D
:107A2000100F14BF1120102014F0080F9C6A18BF0B
:107A30001220A40709D5586B986A000604D51AB11C
:107A40009A6A22F080029A6213200F4B9A6A12F00F
:107A5000010F9A6A18BF142012F0200F9A6A18BFFB
:107A60001520D40658BF9B6A074B9A6A920642BFFC
:107A70005A6A22F400525A629A6A42F0FF029A62EB
:107A800000230B7010BD00BF00ED00E070B5444B4B
:107A90005B689CB00646C3F30803002585F3118894
:107AA000BFF36F8F02F07F40B0F17F4F11D102F032
:107AB0000C0008280DD010074CBF0E4601250022EF
:107AC000033B8DF80720032B05D8DFE803F01E5C8D
:107AD00060592E46F3E700249DF807309BB96822D1
:107AE000314602A807F0BBFF099B002D53D0C3F31A
:107AF000080222B96FEA53236FEA4323099302A9CC
:107B0000204606F063FD1CB070BD254BDA6A910774
:107B1000E1D4DA6A002ADEDBDA6A5200DBD55A6980
:107B2000B16942F480725A61BFF34F8FBFF36F8F18
:107B30005A6931F8021C22F480725A61BFF34F8FE8
:107B4000BFF36F8F4DF60272914209D09A6AD2B29A
:107B500042B10DF107010120FFF75CFF0446BBE7CE
:107B60003468B9E79A6A12F47F4F05D00DF1070126
:107B70000120FFF719FFF1E79B6AB3F5803FAAD315
:107B8000FFF7E8FEEAE70DF107010020E4E70DF159
:107B900007010020EDE723F4FF7323F00103ADE7B5
:107BA00000ED00E0044B5A6942F010025A615A6934
:107BB00022F008025A61704700ED00E0EFF3088000
:107BC000EFF3098101B57246FFF760FF01BD00BF09
:107BD00002F032FD202080F3118808484FF4006144
:107BE000401880F30988EFF314800221084380F3E2
:107BF0001488BFF36F8F00F0CDF80000701F0020D5
:107C0000BFF34F8F0549064BCA6802F4E062134385
:107C1000CB60BFF34F8F00BFFDE700BF00ED00E07A
:107C20000400FA05084B9B6883420BD1EFF30583F0
:107C300043B1064B5A6842F080525A605A6A22F4A5
:107C400000425A6204F0D6BBEC16002000ED00E0C2
:107C500020498A6882F8BDE04FF030001044EFF30D
:107C6000098C80E8F01F1EF0100F03D102F17C0098
:107C700080EC108A202080F31288BFF36F8F164F9C
:107C80004FF000668A698A603E60106F134C206076
:107C900092F9BDE0506F0023536780F311881EF006
:107CA000100F03D00023E1EE103A03E002F17C0054
:107CB00090EC108AEFF3148323F0040383F3148809
:107CC000BFF36F8F02F1300090E8F01F8CF309884A
:107CD00070470000EC16002004ED00E0A00A002030
:107CE0001EF0040F0CBFEFF30880EFF309808169E9
:107CF00011F8021C0229FFD001B5724606F06CFC97
:107D000001BD00BF40B2002807DB044A410901233E
:107D100000F01F00834042F82130704700E100E08E
:107D200040B200280CDB4309064900F01F00203355
:107D30000122824041F82320BFF34F8FBFF36F8FA2
:107D4000704700BF00E100E0054B420900F01F0052
:107D500053F82220012303FA00F01040704700BFBF
:107D600000E100E040B20028A8BF00F1604001F14E
:107D70000101B8BF064B4FEA4111ACBF00F56140AD
:107D800000F00F00C9B2B4BF195480F80013704757
:107D900014ED00E0144A08B5144B22F07F029A60FB
:107DA000BFF34F8FBFF36F8FD3F8882022F4700298
:107DB000C3F88820D3F8882042F4A002C3F88820B2
:107DC0004FF04042C3F83422BFF34F8FBFF36F8FA1
:107DD0000023E1EE103A03F085FB04F043FC00F0D1
:107DE0007BF803F0BFFB00BF0060020000ED00E085
:107DF00042F8203C009B42F81C3C019B42F8183C96
:107E00000A49029B42F8143C4FF0807342F8043C4C
:107E100021F00101002342F8081C203A43674FF487
:107E20007D430265C0F8BC30704700BF8D69020019
:107E3000104B9B6883421AD1EFF30580B8B9EFF37A
:107E40001181202282F31288BFF36F8F1A7B22F0F8
:107E500002021A73EFF3148323F0040383F31488EC
:107E6000BFF36F8F81F31188BFF36F8F70476FF08F
:107E700015007047EC16002000B50E46154600238D
:107E8000E1EE103AEFF3148323F0040383F3148834
:107E9000BFF36F8FBFF36F8F084B026F9860084B73
:107EA0001A602C4686F309880020064B9847204626
:107EB000002100220023044C204700BFEC160020C4
:107EC000A00A0020F7E502008D690200014B102294
:107ED0001A61704700ED00E0044800232021C21819
:107EE0000133302B82F80013F9D1704700E100E034
:107EF00008B5EFF30583064A103B02EBC30152F8C5
:107F0000330049688847BDE80840FFF713BD00BF4C
:107F1000BCFB0200024B034A0348012100F066B893
:107F200000000420000000206C010300084AC2F891
:107F300098000B6823F01F03034343F01003C2F8BB
:107F40009C308B6843F00103C2F8A030704700BF3B
:107F500000ED00E02DE9F043DFF8608085B00E46CB
:107F60001F4604464FF00009B14523DA6068D8B1D6
:107F70003FB1411E08421BD11F2819D9236819425D
:107F800016D12368019306F059FBA36803430393BA
:107F9000D8F89050C5F30725D0B2013DA84207D8C4
:107FA00001A9FFF7C3FF421C09F101090C34DBE70B
:107FB0006FF01502104605B0BDE8F08300ED00E05B
:107FC000044B0522C3F89420BFF34F8FBFF36F8F8C
:107FD000704700BF00ED00E0BFF35F8F024B00224F
:107FE000C3F89420704700BF00ED00E010B5034CCB
:107FF00001232278FFF7AEFF207010BD6317002029
:108000002DE9F043534B544CD3F890302568C3F31B
:1080100007239D4285B000F29A80FFF7DDFF002024
:108020000C2685421AD14D4C4D4F25706846FEF7FF
:10803000EBFDDFF82081DFF82C9106460025AE42EB
:1080400013D1237843490020D1F89020C2F30722AE
:10805000934276DBFFF7B4FF002042E0616806FB45
:108060000011FFF763FF0130DBE7009800EB05111B
:108070004FEA051CCB683B40B3F5000F48D00AD847
:10808000B3F5001F30D0B3F5800F36D0B3F5801FA5
:1080900010D00135D3E7B3F1807F42D0B3F1007F38
:1080A000F7D150F80C3088684A6806F0C7FA40F4F7
:1080B000802009E050F80C3088684A6806F0BEFA63
:1080C00040F0885040F43020CDE901230390D8F8E7
:1080D00090302078C3F30723013B98422AD96FF0F0
:1080E000150005B0BDE8F08350F80C3088684A6888
:1080F00006F0A4FA40EA0900E6E750F80C30886878
:108100004A6806F09BFA40F0E06040F40030DBE79C
:1081100050F80C3088684A6806F090FA40F0827097
:10812000D2E750F80C3088684A6806F087FA40F0C9
:108130008870C9E701A9FFF7F9FE2378013323709E
:10814000A7E7C1F89830C1F8A00001337CE74FF0F1
:10815000FF30C6E700ED00E0780103006317002060
:108160000000F0FF0000081108B50649064821F09C
:108170000701C1F1005202F5802206F082F80020CA
:1081800008BD00BF27380020A40A0020044A0123AC
:10819000C2F840354FF080420020C2F87835704771
:1081A00000E0014020B1034B800143F00103184778
:1081B000704700BFD0FD02007FB50D4D0D4E4FF052
:1081C000FF324FF0FF3301A9284603F0CBFA002815
:1081D000F5D1094CB442F2D2236813B1019A93420B
:1081E00003D1D4E9013101A898470C34F2E700BF6C
:1081F00060020020BCFD0200B0FD0200020600F09B
:108200007F0312D5082B05D1010700F00F0306D517
:108210000E48704710F0780F12D100F00F034C2079
:1082200000EB43100A4B18447047082B05D1020796
:1082300000F00F0306D50748704710F0780FF6D00E
:1082400000207047044800EB43107047FC0B0020EF
:10825000B00A00201C0D00201C0C0020014902481F
:1082600006F052BFD80A0020F00300200146014862
:1082700006F0A5BEC002002002480022002303F041
:108280009BBB00BFC002002013B5124800F0C4FE23
:10829000114B98421AD1114802F0D0FF0024104827
:1082A00003F012F80F49104800944FF0FF334FF4D9
:1082B000806203F02DFD0D490B4806F05AFF0C4873
:1082C0000C4906F005FF204602B010BD6FF0040017
:1082D000FAE700BFDD8402000000AD0BDA05030001
:1082E00098010300701B0020F0030020CC05030060
:1082F000D80A0020F985020010B50E49BFF35B8F44
:10830000002351E8002F012A03D141E80030002862
:10831000F7D1BFF35B8F0CD151F8044C14392046D0
:1083200006F0F4F8783004D12046BDE8104006F09D
:10833000C9B810BDD00A002038B5002464F07F0011
:10834000C0B2FFF75BFF013406F088F9082CF5D1C5
:108350000E4D0024E0B2FFF751FF036903B9056138
:10836000013406F07BF9082C05F14005F2D10848EC
:1083700006F074F9074BD3F87C2212B9064AC3F809
:108380007C22064806F06AF9002038BD4011002022
:10839000FC0B0020B00A0020400D00201C0D002026
:1083A00010B5054CFFF768FF20B14168204606F084
:1083B00027FDF7E710BD00BF3002002007B50023FE
:1083C0000E48002201A903F047F990B1FFF7E8FF3A
:1083D0000A480022002301A903F03EF938B90198A8
:1083E000042340600374FFF741FFFFF737FF0020CD
:1083F00001E00198406003B05DF804FB300200200A
:10840000022810B511D8094B1C5CFFF7D7FF60B1EB
:10841000002202740472FFF729FF054B93F8243001
:108420001BB1BDE81040FFF719BF10BDD705030011
:10843000B00A0020F8B5877806463846FFF7DEFE1A
:108440003B06F578044612D5002D43D1FFF7B6FF61
:10845000034600283ED00122A5770274032202734E
:108460009C60FFF703FFBDE8F840FFF7F7BE4DB192
:10847000012D2FD1FFF7A2FF034658B3657705748E
:108480000573EDE7FFF79AFF20B3B278124B12F0B5
:10849000800F02F0080111D041B1D3F8A836E36093
:1084A00001230374022303738460DAE702F00F02EE
:1084B000142101FB0233D3F80836F0E711B1D3F8E9
:1084C000A837ECE702F00F02142101FB0233D3F8C6
:1084D0000837E4E7F8BD00BF00700240F0B506467B
:1084E00089B01422002103A807F0C7FA3378013BB2
:1084F000052B21D8DFE803F07A0314146A1603234E
:108500008DF814300024FFF759FF0346A0B104741E
:1085100000F10802DDE9050182E8030018461DE0CC
:108520000423EDE7B7783846FFF768FE837A044600
:1085300023B1013B022B43D909B0F0BD3B06F578CE
:1085400013D5002DF8D1FFF739FF03460028F3D0EB
:108550000122A5770274032202739C60FFF786FE56
:1085600009B0BDE8F040FFF779BE55B1012DE3D168
:10857000FFF724FF03460028DED0657705740573F6
:10858000EBE7FFF71BFF07460028D5D00123037454
:1085900002230373846004F10C01B07806F0BFF885
:1085A000134AE168B2F88C328B4206D95B1AA2F802
:1085B0008C3201F07FF83846D0E7A2F88C52FAE707
:1085C000304609B0BDE8F040FFF734BF01A801F024
:1085D0004FF89DF80530052B04D19DF8043013F0B9
:1085E000600FA9D0034B059301248CE702248AE78E
:1085F000B00A00201C0C00202DE9F043A64CDFF847
:108600009C9285B08046FFF737FE074610B905B04B
:10861000BDE8F08394F825303A7C3BB9002A00F09D
:10862000868079689D4806F0EBFBECE7042A42D887
:10863000DFE812F07D0005000001160140013B7BE0
:10864000BD68032B37D8DFE803F0023D5A5F6E693F
:10865000934B002232607260D3F880143170D3F8EB
:1086600084147170D3F88814D3F88C0441EA002183
:108670007180D3F89014D3F8940441EA0021B180BA
:10868000D3F89814D3F89C3441EA0323F3800823E9
:10869000EB6030687168834B03C311462B68687ABE
:1086A000984796F90030002B08DBF38833B1A4F823
:1086B0008C3200F0FFFF79684846B4E70023A4F845
:1086C0008C32F8E76B7F002BF5D02B7F002BF2D09C
:1086D00000266E774FF0FF3273482E774FF0FF334E
:1086E00005F0CFFF6B6901936B68CDE9023601A9F4
:1086F000687A00F0E7FC6C4805F0C5FFDBE72B6803
:108700000121687A9847D6E7AB7A6BB9EB7F5BB902
:1087100065484FF0FF324FF0FF3305F0B2FF00F035
:10872000CFFF614805F0AFFF2B680221E9E73A7AF5
:10873000042AC0D8DFE802F059032367730000F071
:108740002BFC05460028B6D100F066FBBFF35B8F1B
:108750005649012351E8002F002A03D141E8003097
:108760000028F7D1BFF35B8FA5D141F8085C41F831
:10877000105CE0696361143905F04DFE9BE700254C
:1087800065F07F00C0B2FFF739FD037A13B1407A7C
:1087900001F0FAF80135082DF2D194F854311BB1EB
:1087A00094F8550101F0F0F80025E8B2FFF726FD36
:1087B000037A13B1407A01F0E7F80135082DF4D1BE
:1087C00094F874321BB194F8750201F0DDF80020C2
:1087D00000F0C6FB012384F825302368002B3FF40A
:1087E0006AAF00210220984765E7002584F82550EC
:1087F00001F030F8FFF780FD2368002B3FF45BAFFA
:1088000029460420EFE7002B3FF455AF00F0CEFBE4
:108810002368002B3FF44FAF00210520E3E72268D7
:10882000002A3FF448AF002B3FF445AF002106205B
:10883000904740E708F110054FF0FF334FF0FF324B
:10884000284605F01EFFFFF777FD284605F01BFFC1
:1088500058F8283C002B3FF42EAF00210120C2E73E
:1088600094F874327BB1012584F8895284F88852D7
:10887000FFF7A4FD38B10E4A057405738260FFF757
:10888000F5FCFFF7EBFC58F8283C002B3FF413AF46
:1088900000210A20A7E700BFB00A00203002002014
:1088A00000700240B40A0020E80A0020D00A00202C
:1088B0001C0D002006F008FA00F0CCFF00F0A2FA30
:1088C000FFF76EFDFFF738FD06F0F7F9014800F0FD
:1088D000A3FBF0E6DD84020038B5164D95F8244080
:1088E0002CBB05F1380006F0E2FA204601F0A0F9B1
:1088F00022460121E8612720FFF734FA06F0DDF96E
:10890000FFF71AFD044610B9012385F824300A4BFD
:108910001B680BB1FFF7A2FC4FF08043D3F838344B
:10892000DB0702D50020FFF76BFD204638BD002491
:10893000FBE700BFB00A0020C0020020074B93F8FD
:1089400024203AB193F82530002B14BF00206FF09B
:10895000120070476FF01200704700BFB00A00208D
:1089600038B5104B93F824300446C3B10578284637
:10897000FFF744FC10B96FF0150038BD457223793C
:108980008372638843602078618810F0080F02D1F9
:108990004B1E0B42EFD105F0BDFE0020EDE76FF05E
:1089A0001200EAE7B00A002038B5124B93F82420F1
:1089B0000546CAB193F82530B3B1FFF71FFC044652
:1089C000A8B1837A012B12D007D9023B012B07D91A
:1089D0006369A3610020E06038BD00F077FEF7E72F
:1089E000284600F019FEF3E76FF01200F4E76FF08D
:1089F0001500F1E7B00A002038B50E4B93F824209B
:108A0000054682B193F825306BB1FFF7F7FB68B1EB
:108A100015F008040AD1284600F020FE284600F090
:108A2000EBFF204638BD6FF01200FBE76FF015003A
:108A3000F8E700BFB00A002038B50C4B93F82420AB
:108A400005460C4662B193F825304BB1FFF7D6FBD3
:108A500048B144B1284600F0E7FD2070002038BD41
:108A60006FF01200FBE76FF01500F8E7B00A002086
:108A700070B5134E96F824300446C3B1FFF7BEFB21
:108A80000546B8B1230705D4204600F0E7FD20468F
:108A900000F0B2FF2B7A83B901232B7296F82530B0
:108AA0000BB9002070BD204600F06EFFF9E76FF0B3
:108AB0001200F7E76FF01500F4E76FF07700F1E7C9
:108AC000B00A00202DE9F043DFF8EC801E4698F84C
:108AD000243085B0074689461546002B61D098F8AA
:108AE0002530002B5DD003065ED5FFF787FB0446DB
:108AF000002859D0037A002B56D04FF0FF334FF0A7
:108B0000FF3208F1380005F0BCFDA37F4BB108F13E
:108B1000380005F0B8FD6FF00A04204605B0BDE846
:108B2000F083A37AC5B13BB30123A3774FF00008CC
:108B300001A93846CDE90195CDF80C8000F0C2FAC4
:108B40001B4B984229D084F81E801EBB6FF0040492
:108B5000184805F098FDE0E7E27F02B1E577002BC9
:108B6000E2D100F0B9FD8742DED000F0A9FD114846
:108B700005F089FD0024D0E7B8F80A30AB42F0D9FF
:108B80006268B5FBF2F302FB1353002BE9D101231A
:108B9000E377E6E7C6F80080D8E706B13560002441
:108BA000D6E76FF01204B8E76FF01504B5E700BF21
:108BB0000000AD0BE80A0020B00A00202DE9F041CA
:108BC0001D46204B174693F824200E46002A33D02A
:108BD00093F8253083B3030631D401B97FBBFFF787
:108BE0000DFB044658B3037A4BB34FF0FF331648DE
:108BF0004FF0FF3205F045FDE368BB42984628BFC1
:108C0000B84646B93FB905B12B600F4805F03BFDAA
:108C10000020BDE8F081A1694246304606F01FFF02
:108C2000A3694344A361E368A3EB0803E360002D59
:108C3000EBD0C5F80080E8E76FF01200E9E76FF0CD
:108C40001500E6E7B00A0020E80A002070B51E4DC6
:108C500095F82420034682B395F825206AB31B06B5
:108C60002ED4FFF7CBFA044650B3037A43B34FF048
:108C7000FF334FF0FF3205F1380005F002FDE368E5
:108C8000B3B9012663692677A361637F83B1FFF7D8
:108C900095FB30B905F1380005F0F5FC6FF00B00DD
:108CA00070BD067484600673FFF7E0FAFFF7D6FA2A
:108CB000064805F0E8FC0020F2E76FF01200EFE74D
:108CC0006FF01500ECE700BFB00A0020E80A0020B2
:108CD00010B5084B93F824300C462BB1FFF78EFAF1
:108CE00028B10460002010BD6FF01200FBE76FF0A8
:108CF0001500F8E7B00A0020014B1860704700BF6C
:108D0000B00A002008B5074B93F8243023B1FFF7D1
:108D100075FA20B1406808BD6FF01200FBE76FF0F4
:108D20001500F8E7B00A00204FF08053D3F8302147
:108D3000082A06D1D3F83431052B04D8034AD05C75
:108D40007047002070470120704700BFDB0503001B
:108D5000064B10F0800FA3F1D80208BF134600F0B5
:108D60000F00182202FB0030704700BF581400208B
:108D7000EFF31180202383F31288BFF36F8F0A4B28
:108D8000D3F8001C032261B949F27531C3F8001C05
:108D9000C3F8142DC3F8001C80F31188BFF36F8F44
:108DA0007047C3F8142DF7E700E00640EFF3118099
:108DB000202383F31288BFF36F8F0A4BD3F8001C74
:108DC00061B949F27532C3F8002CC3F8141DC3F819
:108DD000002C80F31188BFF36F8F70470022C3F817
:108DE000142DF6E700E006404FF08053D3F8303101
:108DF000082B02BF024B0022C3F81C2C704700BF97
:108E000000700240024A00231360024A1370704748
:108E1000381500206817002008B54A4B4FF400624F
:108E2000C3F80024FFF780FF08B1FFF7A1FF4FF060
:108E30008053D3F83031082B18D1EFF31180202361
:108E400083F31288BFF36F8F3F4BD3F8001CC0220F
:108E500000296ED149F27531C3F8001CC3F8142CF7
:108E6000C3F8001C80F31188BFF36F8F354B0122CC
:108E7000C3F80025D3F800241205FBD54FF4006297
:108E8000C3F800244FF08053D3F83031082B17D1AA
:108E9000EFF31180202383F31288BFF36F8F2A4BE7
:108EA000D3F8001C002947D149F27532C3F8002CD1
:108EB000C3F8141CC3F8002C80F31188BFF36F8F24
:108EC000FFF732FF30B1FFF771FFFFF72DFF08B159
:108ED000FFF74EFF4FF08053D3F83031082B194B7A
:108EE0000AD140F2E372C3F800284022C3F80428F4
:108EF000BFF36F8FBFF34F8F8022C3F81C25012271
:108F0000C3F83025114B40F2FF121A60104B0021BC
:108F10001960104B1970FFF767FF0F4B19700F4B5B
:108F200002221A70FFF700FF50B1BDE80840FFF7BA
:108F30003DBFC3F8142C95E70022C3F8142CBBE7FF
:108F400008BD00BF0070024000E00640341500205C
:108F500030150020641700206617002068170020D5
:108F6000094B002210B51A70084A094B094C002819
:108F700008BF1346C4F800332720FEF7C3FE0123C1
:108F8000C4F8043510BD00BF67170020FDFFDF01E6
:108F9000FDFFFF0100700240034B1878012894BFC9
:108FA00000200120704700BF6817002010B54FF067
:108FB000FF324FF0FF33154802F064FDEFF31181EB
:108FC000202383F31288BFF36F8F114B1B7803F0BC
:108FD000FF0483B10F4BD3F8002412F400720AD1BE
:108FE0000120C3F82C05D3F82C05D3F80004800524
:108FF00002D5C3F82C25002481F31188BFF36F8FAD
:10900000024802F00BFD204610BD00BFB002002058
:109010006717002000700240F8B51C4B1C7894BB09
:109020001B4A106001221A7040F2FF17264664F0B6
:109030007F0514F0080FEDB214BF394640212846D1
:1090400005F068FB2846FFF783FE0134092C86757E
:1090500006730661EBD1002440F2FF17254614F099
:10906000080FE6B214BF39464021304605F052FBE6
:109070003046FFF76DFE0134092C857505730561D7
:10908000EDD10448F8BD0448FCE700BF6817002094
:10909000381500200000AD0B0500AD0B084B10F09B
:1090A000800F00F00F0114BFD3F81025D3F814255A
:1090B00001238B40134214BF01200020704700BFE2
:1090C000007002402DE9F8430246EFF31187202398
:1090D00083F31288BFF36F8F030703D1184B1B78FC
:1090E000834229D1174B184E1C683568104605F08D
:1090F00009FBE443A4B24FF001092C4309FA00F83C
:1091000014EA08041AD11046FFF722FE80F80C90EA
:10911000034607C91C6183E807009C750B4B0C488C
:1091200045EA080580223560C3F8042187F31188D9
:10913000BFF36F8FBDE8F8830648F7E70648F5E709
:1091400066170020341500203015002000E100E0F3
:109150000000AD0B0A00AD0B0B00AD0B10F0080FBB
:10916000074B06D0D3F8C00410F4803F18BF00208E
:10917000704700F00F0000F5947053F8200070471E
:10918000007002402DE9F74FAB4BAC4ED3F85421A1
:10919000DAB10022C3F85421D3F80413890214D59C
:1091A0008DF80420D3F82025ADF80620D3F8C0347C
:1091B000002B336814BF4FF001224FF48072134329
:1091C00033609F4B01A81B6898479B4BD3F86041C5
:1091D00034B10022C3F86021D3F86C44C3F86C4466
:1091E000D3F828214AB10022C3F82821954B1878DA
:1091F00005F088FA012383401C43DFF86482924F14
:1092000098F8005098F9009015F0080143D1B9F191
:10921000000F05F00F032EDA8C4A52F8230020B31A
:1092200042F823101422534303F1804303F51C3307
:10923000D3F80836864A117803F001034B401370C7
:10924000FFF7D2FD834802F0E9FB2846FFF780FDD7
:10925000837D032B37D1284605F054FA012303FA06
:1092600000F03B6823EA00033B60DFF8D4A101254E
:109270004FF006095DE0784A52F823000028F4D048
:1092800042F823101422534303F1804303F51C33A7
:10929000D3F80837CEE7B9F1000F674B09DBD3F8F5
:1092A0005021002AE1D00022C3F85021D3F8A8377A
:1092B000C0E7D3F82C21002AD7D00022C3F82C21F4
:1092C000D3F8A836B6E7037BDBB9284605F01AFACF
:1092D000012303FA00F03B68B9F1000F23EA000311
:1092E0003B6001DA882DC0D106238DF804300023BD
:1092F0008DF80730524B8DF806501B6801A898472F
:10930000B3E7002DB1D14C4B0122DA64ADE794FAFA
:10931000A4F03268B0FA80F005FA00F31A430F287F
:10932000326024EA03043A6840F39C80134200F060
:10933000A980002CEBD1404BD3F800215AB1C3F8DF
:109340000041464B1C703F4B1C70012301933C4B6A
:1093500001A81B689847384BD3F85821002A2ED013
:109360000022C3F85821D3F80044C3F80044E305B1
:1093700008D53A4B01221A7002230193304B01A801
:109380001B689847A50508D5344B00221A700323A3
:1093900001932B4B01A81B68984760050FD52F4BF5
:1093A0001A7862B100221A70234B0122C3F80825F3
:1093B0009A6504230193224B01A81B6898471E4B12
:1093C000D3F85C3103B3234B9B681BB998F800308A
:1093D000590619D0184B0022C3F85C21D3F8803409
:1093E000184A23F07F0313703B6823F001133B609E
:1093F000336823F4803343F0010333600523019382
:109400000F4B01A81B6898473A6833681A4200F06E
:10941000EB8010480022002302F034FB002840F0CB
:10942000E380054BD3F82C35002B7BD0094803B0E3
:10943000BDE8F04F02F0F2BA00700240341500208F
:1094400038150020661700203015002008710240F2
:1094500064170020B002002030710240671700201E
:109460006517002013407FF464AF60F07F018DF832
:1094700004908DF806108DF80730DAF8003001A856
:10948000984756E7A0F110018DF804908DF806106A
:109490008DF80750F1E749F080052846FFF758FCA2
:1094A0004368B0F814A001689A4528BF9A4601F0B5
:1094B0006043B3F1005F044604D05448524606F0BE
:1094C000CEFA52492268636852442260A268A3EB34
:1094D0000A03D20768B2636053D5BAF1000F52D1C4
:1094E000002323734FE011464FF0000A604545D139
:1094F000003B18BF0123002A42D0504540D9012328
:1095000003FA09F32BEA03033B6006238DF80430CA
:109510003F4B8DF8065002221B68A2758DF807207C
:1095200001A89847D7F800B033681BEA03093FF455
:109530007DAF19F0012314BF93FAA3F999FAA9F9A1
:10954000B9FA89F9B9F10F0FA5D9A9F11005EDB252
:109550002846FFF7FDFB04462846FFF7FFFD63683A
:10956000B4F814C022689842BDD81B1A00EB020E52
:1095700011466360C4F800E08246B7E70023BAE70B
:1095800068B2002BACD04FF08053D3F83031082BA9
:1095900002BF204B8222C3F81C2C336888F800508D
:1095A000012202FA09F923EA09033360236915F05D
:1095B000080F53442361174B19D1002805F00F05FC
:1095C0004FF0140000FB0530A9BF0A3503EB8503FB
:1095D000C0F80017C0F804A7AFBF43F82520C0F8B3
:1095E0000016C0F804A65A6003B0BDE8F08F00284A
:1095F000B5BFC3F8A016C3F8A017C3F8A4A6C3F854
:10960000A4A7B4BF5A629A64EEE700BF40130020DB
:109610003815002000700240024B40F48070C3F8FF
:109620001805704700700240030713D400F00F03C1
:1096300010F0800F084A0BBF03F5887303F584739D
:1096400002EB830252F8230008BF5068003818BFAD
:10965000012070470020704700700240034BC3F8A0
:109660000C0540F48070C3F80C0570470070024090
:109670000023036043600E4BD3F880240270D3F8BC
:1096800084244270D3F88824D3F88C1442EA01224F
:109690004280D3F89024D3F8941442EA01228280C5
:1096A000D3F89824D3F89C3442EA0323C38070474C
:1096B00000700240014B0122DA64704700700240E2
:1096C000014B01221A65704700700240014B0122D4
:1096D0005A65704700700240014B1878704700BF10
:1096E0006617002010B50246EFF31184202383F3A0
:1096F0001288BFF36F8F05F005F80B49012303FAB9
:1097000000F00B6823EA00030B6012F0080101BFB0
:1097100002F00F02054B02F5947243F8221084F315
:109720001188BFF36F8F10BD341500200070024008
:10973000F7B50146EFF31185202383F31288BFF3B9
:109740006F8FFFF705FB0646084604F0DBFF01229A
:1097500011F0800F02FA00F22D4818D1036832EAA6
:1097600003040AD00846FFF7BDFF0323B37585F352
:109770001188BFF36F8F03B0F0BD2649347323EA1D
:10978000020303600B6823EA02030B60EDE70B079B
:1097900015D48029204B2FD001F00F0404F2DA34C5
:1097A0006400C3F80048D3F80448D3F80478E4B25E
:1097B00044F002043C43C3F80448D3F80438154F7E
:1097C00004683B6864EA030C1CEA020FCFD0134321
:1097D0003B60002333730323B3758DF807300F4BC1
:1097E0008DF8061024EA0204062204601B688DF836
:1097F000042001A89847BAE740F2B474C3F80048BF
:10980000D3F80448D3F80478E4B244F00404D1E770
:10981000301500203415002000700240381500205B
:1098200038B50446094D4FF0FF324FF0FF3328465C
:1098300002F028F92046FFF77BFF284602F0EEF8F9
:10984000034B8022C3F8042138BD00BFB0020020C2
:1098500000E100E0F8B54FF0FF324FF0FF332B4846
:1098600002F010F92A4B8022C3F884212720FEF74A
:109870006BFA98B1274E284B34681B68240C2404DB
:109880001C43012764BB254D40F2FF1333602720A2
:10989000C5F80445FEF744FAC5F80043204A13789A
:1098A0008BB11E4B0021C3F808110121C3F800261B
:1098B000C3F804165960D3F808110029FBD0002121
:1098C000C3F808111170154B0022C3F80025FFF7EB
:1098D0008BFA0E4802F0A2F8124B01221A70F8BD62
:1098E00094FAA4F5B5FA85F50F2D2846C6BFA5F163
:1098F0001000C0B240F08000030701D4FFF718FF4A
:1099000007FA05F524EA0504BCE700BFB002002011
:1099100000E100E034150020301500200070024006
:10992000641700206817002010B504464FF0FF327E
:109930004FF0FF33114802F0A5F82046FFF7F8FE7C
:1099400004F00F02012393400D4A14F0800F14BF5E
:10995000D2F81015D2F814156FEA030315BF0B40A7
:109960000B40C2F81035C2F81435044802F056F81E
:10997000044B8022C3F8042110BD00BFB0020020B8
:109980000070024000E100E070B50446FFF786FB7E
:1099900068B904F00F02012514F0800F144B05FA8A
:1099A00002F205D0D3F810150A43C3F8102570BD94
:1099B000D3F814150A43C3F81425631E062BF6D8F2
:1099C000EFF31186202383F31288BFF36F8F2046B5
:1099D000FFF788FE204604F095FE064A136885408E
:1099E00023EA0503136086F31188BFF36F8FDEE768
:1099F0000070024030150020030610B5044605D45F
:109A0000FFF712FE10B12046FFF76CFE014BC3F8C2
:109A1000184510BD00700240084B70B5C31A0D46C2
:109A200007499B10044659430648402204F096FE1D
:109A30002B4601462046BDE87040184750150020CF
:109A4000B76DDBB630FB020073B50C4C0C4A4023FB
:109A5000041B00930D460B460A49A41061430646B9
:109A6000094804F0A7FE011E05DA30462B4602B075
:109A7000BDE87040184702B070BD00BF501500200F
:109A80001FE80200B76DDBB630FB020010B5EFF344
:109A90001184202383F31288BFF36F8F074A136862
:109AA00023F00201DB07116002D4012005F077F8F2
:109AB00084F31188BFF36F8F10BD00BFA015002085
:109AC000002270B5012104461046FEF74BF90F48FD
:109AD00000F014FF0E4B984215D100F01FFF2669CD
:109AE0000C49304604F084FC00280BDB012535646A
:109AF0002469084904F11C0004F07AFC002801DB09
:109B0000E564002070BD6FF00400FBE7159C0200C7
:109B10000000AD0B9C0103001FB500220123CDE91D
:109B20000223094ACDF800D06B46CDF804D004F0EA
:109B30006FFE002805DB4FF480420023684601F0E9
:109B4000A1FF05B05DF804FB3FE8020030B4104B04
:109B50000C2202FB003301460020D3E90E52986329
:109B6000EFF31180202484F31288BFF36F8F1C6CF5
:109B700004F0C00444F002041C6480F31188BFF3B5
:109B80006F8F1DB12B46034830BC184730BC70475F
:109B90005015002030FB020010B4EFF31182202397
:109BA00083F31288BFF36F8F1848016841F00204F5
:109BB0000460C80708D482F31188BFF36F8F0120B7
:109BC0005DF8044B00F0C2BE4FF08041D1F80C04A8
:109BD000D1F80C14C907EED5EFF3118083F3128886
:109BE000BFF36F8F0A490B6C03F0C00343F002030D
:109BF0000B6480F31188BFF36F8F82F31188BFF37A
:109C00006F8F00205DF8044BFFF7A0BFA015002068
:109C10005015002010B1012804D07047034B1B6C75
:109C20005B0701D1FFF792BF704700BF50150020BE
:109C3000024AC3B21C2003FB0020704750150020CD
:109C40002DE9F0413849BFF35B8F0746012251E807
:109C5000003F41E800200028F9D1BFF35B8F33B902
:109C6000324933484B60CB608A6004F0D4FB7B1EE2
:109C7000012B2BD8012F07D14FF08043D3F81C3490
:109C800003F00303012B21D005F06DFA0546F8B966
:109C9000284B1B78E3B14FF080430222C3F808231E
:109CA0000646DFF894804FF08044D4F81824D4F8A6
:109CB0001834D20315D503F00303012B01D0012F73
:109CC0000FD155B386F31188BFF36F8FBDE8F081D4
:109CD000EFF31186202383F31288BFF36F8F0125E2
:109CE000DFE7ADB1304604F09AFCD4F81835002B0C
:109CF000DBD1D4F80421002AD7D0C4F80431D4F839
:109D000004310123C4F81835C8F88031A360CCE7CA
:109D10000021212005F0C7FAE7E74FF08043022237
:109D2000C3F80423D2E700BF4C1500203C150020E7
:109D30006C1500206B17002000E100E0F0B54068D2
:109D4000057B01F01F0444EA4514056987B0002D26
:109D500064D0B2F5001F00F1100506D12146284657
:109D600004F09DFF002007B0F0BD01AE0027B2F562
:109D7000800F0197776039D1B3F1007F14BF0523BD
:109D800004238DF804300023CDE904630393836832
:109D900023FA01F111F001011AD1B2F1A07F17D11C
:109DA00004F01F03620903F5E0732AD0012A3BD1B6
:109DB0001F4A52F82330DB070AD40DF1030632465E
:109DC0002146284601F0A0F81A4B98421CD0029672
:109DD00003AA2146284600F059FF174B984220D18C
:109DE00001222146284601F0F3F8BBE7B3F1C06F2A
:109DF00005D0B3F1007F14BF01230223C1E7032381
:109E0000BFE74FF0A042D4E73146284601F0DAF828
:109E1000094B9842DBD06FF00B00A4E76FF0850090
:109E2000A1E76FF015009EE751F82330FFDE00BF79
:109E3000000300500400AD0B0000AD0B38B54568C1
:109E40002B69B3B11035284601F0ACF8044680B94F
:109E50000146284601F072F8084B98420BD1084998
:109E60002246284601F04AF8224605210620FDF741
:109E700079FF002038BD6FF00400FBE70000AD0B58
:109E8000859E0200420970B5034602D0012A17D010
:109E900070BD0D4E326951680029F9D003F01F03DF
:109EA00001250C689D400029F2D08A682A4002D022
:109EB0004B68304698472CB1236821461C46F2E790
:109EC000024EE7E72346F8E758FB020044FB020096
:109ED0002DE9F043466840F20635D006337B87B063
:109EE00002EA050554BFC2F34010032001F01F072A
:109EF000B5F5837F144647EA43178DF8030045D034
:109F00000FD8062D18D007D8B5B1022D40D06FF06C
:109F1000150007B0BDE8F083B5F5807FF7D10125C6
:109F20000AE040F20222954234D0B5F5407F33D0AA
:109F3000B5F5007FEBD102250123220303FA01F1DD
:109F40002CD57368C3F80815326982BB07F01F036C
:109F50007F0929D0012F77D13E4A02EB830284F496
:109F60008033D2F80017C3F30043C4F3404444EAFB
:109F7000430421F4E16144EA800421F0070144EA4A
:109F800005230B43C2F800370020C2E70725D3E7BB
:109F90000425D1E70525CFE70325CDE7630344BFBB
:109FA0007368C3F80C15CFE74FF0A042D5E7103621
:109FB0000DF102023946304600F0A6FF14F4403F8E
:109FC00080460CD13946304604F067FE224B984556
:109FD000DAD19DF80210304600F0EEFFD4E701AB75
:109FE0004FF0000903AA39463046CDE90439CDE9DE
:109FF0000199CDF80C9000F049FE174B984286D19C
:10A0000014F4003315D09DF803308DF80E3084F42D
:10A010008034C4F300444B4603AA394630468DF8D9
:10A020000C508DF80D4000F0EBFE0B4B9842CDD05C
:10A030006DE7CDE9043303AA0DF103033946304639
:10A04000039300F023FEF0E703F5E07352F82330AA
:10A05000FFDE00BF000300500000AD0B0B6800687E
:10A06000C01A024B80105843704700BFCDCCCCCCF7
:10A07000D0E90001014B0C2205F07BBA5DA0020083
:10A080002DE9F74F0569044628464FF00C0A40F8C1
:10A09000044BFFF7EDFF05F11000274905F044F8E8
:10A0A000D4F81080D4F804900025D8F80830AB42DA
:10A0B00003D8002003B0BDE8F08FD8F8047099F8F9
:10A0C000102001920AFB05F607EB060BB85904F0C5
:10A0D0004AFE0028EDD0019ABBF806C042B31CF03E
:10A0E000010F0CBF2022102242F48032B8599BF895
:10A0F00004104CEA020204F026FC0028D9D12169A0
:10A100002A01096C8C509BF80430012202FA03FCEE
:10A110000A4B01EB0510C0E9023C011DB8598368E8
:10A12000DB69002BC5D098470028C2D10135BCE7B8
:10A130004FF48032DAE700BF5FEB02008BE90200E8
:10A140002DE9F047DFF8649006460C4600250C2701
:10A1500001F40008B368AB4202D80020BDE8F087E4
:10A16000726807FB05F3D118D05809798368026932
:10A17000D3F818A0BAF1000F14D0B8F1000F0FD027
:10A18000126801238B4013420AD084F0C06202EAB5
:10A19000090302F0B072D0470028DFD10135D9E7BA
:10A1A0002246F4E76FF05700D8E700BF40000006F2
:10A1B00070B5012383400E4ABFF35B8FDC4352E846
:10A1C000001F01EA040542E80056002EF7D1BFF354
:10A1D0005B8F4FF4803282400648C0F80823BFF3FB
:10A1E0005F8FBFF36F8F0B4214BF0120002070BD43
:10A1F000D01600200010014070B40E49D1E900349F
:10A20000D01AC31844F1000422F07F46C1E900349B
:10A21000A6F50013B3F5400F09D2074B1B681A0AC5
:10A220001B069C19054B42F10005C3E9004570BCB3
:10A2300002F0D8BAE0040020D4160020E804002080
:10A2400011B3BFF35B8F0123104A834052E800CF64
:10A250004CEA030C42E800C10029F7D1BFF35B8F41
:10A260000B4A4FF480338340C2F80433094BBFF3E9
:10A270005B8F1B68BFF35B8FC340DB0742BF064B9E
:10A280004FF40032C3F80021704700BFD016002001
:10A2900000100140CC16002000E100E00D4B1868D2
:10A2A000010A0006BFF35F8F0B4BD3F80435181873
:10A2B00041F10001B3F5801F0AD2084BD3E9002316
:10A2C000904271EB030303D210F1807041F1000161
:10A2D000704700BFD416002000100140E8040020A1
:10A2E0002DE9F04F85B016461F469DF840A0044664
:10A2F000FFF75EFF0190FFF7D1FFB04271EB07035C
:10A3000054D23E4B301A67EB0101984271F10001C3
:10A310004FD23B4B03EB0413D3E902239F4208BF08
:10A3200096425ED037494FF4803804F1500508FA60
:10A3300004F8AD00C1F848832046ADB204F020FC1B
:10A3400026F07F4B05F1804504F5A87305F58835A7
:10A35000DC464FF003090293029A2CF07F4341F848
:10A360002230C1F84483D1F80435274A6FF0020047
:10A37000C01A604420F07F40904232D9286868B10A
:10A38000D1F804350393A3EB0B0020F07F40B0F528
:10A39000000F26D9204604F0F3FB039BBAF1000F0F
:10A3A00007D109EB030C09F10109D5E7BAF1000F58
:10A3B00009D06FF0150520460199FFF741FF2846A7
:10A3C00005B0BDE8F08F0123104ABFF35B8FA340B7
:10A3D00052E8000F184342E800010029F8D1BFF30A
:10A3E0005B8F07490E98230101EB0412C8500F9BA5
:10A3F0005360C2E902670025DDE700BF010080006D
:10A40000D004002000100140FDFF7F00CC1600208A
:10A410007FB51C4C1C4BC4F80833C4F848331B4BA5
:10A4200000254FF0FF304FF0FF31C4F80855C3E965
:10A4300002014FF48033C4F80433154B02264FF465
:10A4400000320121C4F804631120C3F880212A4698
:10A45000FDF788FC1120FDF755FC0E4A0123A3608F
:10A46000236013600C4B0D4A0093CDE90155002386
:10A470002846FFF735FF3046FFF7E2FB284604B0D9
:10A4800070BD00BF0010014003000F00D004002089
:10A4900000E100E0D0160020F9A10200FFFF7F00DC
:10A4A0002DE9F7432F4CD4F8043399070BD5D4F892
:10A4B000043143B12C4A0023C4F80431D4F80431E8
:10A4C000136801331360D4F80433DA0329D5BFF3DA
:10A4D0005B8F264B53E8002F22F0010143E8001068
:10A4E0000028F7D1BFF35B8FD30702D4D4F84031F3
:10A4F000BBB10025C4F84051D4F84031FFF7CEFE7F
:10A50000EFF31182202383F31288BFF36F8F184B70
:10A51000D3E90267B042B94106D282F31188BFF392
:10A520006F8F03B0BDE8F0834FF0FF384FF0FF3975
:10A53000C3E90289D3E900101D604FF48033C4F8E9
:10A540004833C4F84051D4F8403182F31188BFF346
:10A550006F8F0029E5D0009032463B462846884759
:10A56000DFE700BF00100140D4160020CC16002009
:10A57000D004002030B5431C124C85B005D0844275
:10A58000A8BF0446012CB8BF0124FFF787FE0E4B7D
:10A590000C4DD3E90013401AB0F5000F10D2221869
:10A5A000AA4228BF2A4652184FF0000007490091DE
:10A5B000CDE9010043F10003FFF792FE05B030BD85
:10A5C0002A46F0E7FFFF7F00E0040020F9A1020027
:10A5D00008B5FFF763FE024B1B68C01A08BD00BF39
:10A5E000E004002010B5084C012363601120FDF742
:10A5F00097FB064BC4F80833C4F84833044B4FF4B8
:10A600000032C3F8802110BD0010014003000F008C
:10A6100000E100E04FF08053D3F83021082A06D142
:10A62000D3F83431052B02D8024AD05C70470020A1
:10A63000704700BF1806030008B54FF08053D3F8E9
:10A640003021082A4ED14FF080420021C2F80C116F
:10A65000C2F81011C2F8381502F54042D3F80414BC
:10A66000C2F82015D3F80814C2F82415D3F80C1436
:10A67000C2F82815D3F81014C2F82C15D3F8141406
:10A68000C2F83015D3F81814C2F83415D3F81C14D6
:10A69000C2F84015D3F82014C2F84415D3F8241496
:10A6A000C2F84815D3F82814C2F84C15D3F82C1466
:10A6B000C2F85015D3F83014C2F85415D3F8341436
:10A6C000C2F86015D3F83814C2F86415D3F83C14F6
:10A6D000C2F86815D3F84014C2F86C15D3F84434A6
:10A6E000C2F87035FFF796FF18B12B4B2B4AC3F811
:10A6F0008C26FFF78FFF18B1294BFB22C3F81825D2
:10A70000FFF788FF70B14FF080414FF08053D1F8D0
:10A71000E42ED3F8583222F00F0203F00F03134354
:10A72000C1F8E43EFFF776FF20B11E4B4FF40072F4
:10A73000C3F840264FF08053D3F83031082B09D1AD
:10A740004FF08043D3F80024D20744BF6FF00102DA
:10A75000C3F80024144AD2F8883043F47003C2F8D6
:10A760008830BFF34F8FBFF36F8F4FF08053D3F814
:10A770003021082A0ED1D3F83431052B02D80B4AE8
:10A78000D35C3BB14FF01023D3F808224FF0804345
:10A79000C3F8582508BD00BF0050004048810300A1
:10A7A00000F000400090024000ED00E012060300BF
:10A7B00030B50468CCB1BFF35B8FB4FA84F3C3F156
:10A7C0001F03DBB201229A4024EA020250E8005F34
:10A7D000A54204D140E8002CBCF1000FF6D1BFF334
:10A7E0005B8FE6D102480B7030BD0248FCE700BF2A
:10A7F0000000AD0B0200AD0B10B50368CB40DB07CA
:10A8000014D401238B400268BFF35B8F43EA02013B
:10A8100050E8004F944204D140E8001CBCF1000F06
:10A82000F6D1BFF35B8FEED1014810BD0148FCE7C4
:10A830000000AD0B0400AD0BF7B50546F8B10128DB
:10A840001BD104224FF4807301464FF08040034433
:10A850000244C0F808130026012111601E608D42D9
:10A860001B688DF8071008BF0DF1070642F210743F
:10A870004FF0804745B1012D28D003B0F0BD0C2228
:10A880004FF482730221E0E7D7F8183403F48033E1
:10A890003EB9002BF1D0012004F07FF9013CF3D147
:10A8A000EBE7D7F8182402F003023260002BE4D063
:10A8B0009DF80700012803D104F06FF9013CD9D1BC
:10A8C000012DDAD10C4B00225A71D6E7D7F80C349F
:10A8D00003F480333EB9002BF4D0012004F05DF97D
:10A8E000013CF3D1EEE7D7F80C2402F001023270FC
:10A8F000002BDDD1E6E700BFD8160020044B1A7903
:10A9000022B9012218609A800248704702487047B5
:10A91000D81600200000AD0B0C00AD0B08B5094B9C
:10A920001B682BB10020FDF70FFA08B9FDF7EAF913
:10A930004FF080430022C3F81825034B01221A7000
:10A9400008BD00BFD81600206917002010B510B14F
:10A95000012843D010BD4FF08043D3F81814D3F82A
:10A960001824C80321D502F00303012B04D013B12E
:10A970000020FFF761FF00234FF080420220C2F861
:10A98000183508224FF4827303F1804300211960C7
:10A9900002F180421C6801241460154A12680AB34F
:10A9A0004FF08043C3F80403D4E7D3F81424D1074D
:10A9B000E1D5D3F81C249207DAD40D4A12681AB1F3
:10A9C0000222C3F80423C5E7D3F80421002AFBD0F0
:10A9D0000022C3F80421D3F80431BBE700224FF46E
:10A9E0008073D1E71A68002AFCD019601B68B1E7B0
:10A9F000D816002010B54FF08043D3F800216AB17B
:10AA00000022C3F80021D3F800210122C3F8082353
:10AA1000114B587910B95A711B6898474FF0804311
:10AA2000D3F8042172B10022C3F80421D3F8042121
:10AA3000D3F81824D3F81824920704D10122C3F8BC
:10AA400018259A6010BD0222C3F80823024BBDE806
:10AA500010401B6801201847D8160020036803F037
:10AA60001F025B09026004D0012B034818BF0020BD
:10AA700070474FF0A040704700030050034A43095D
:10AA800000F01F00D35C1844C0B270471E060300DC
:10AA900070B50546FFF7F2FF0C4C08300E4634F84F
:10AAA0001030DA0508D5C3F3432304EBC30228466C
:10AAB00054F8333052689847A3682BB1E2683146A6
:10AAC0002846BDE87040184770BD00BF58010020FF
:10AAD00008B5FFF7D3FF034B083033F81000400BE5
:10AAE00008BD00BF5801002008B5FFF7C7FF034BA2
:10AAF000083033F81000C0F3400008BD58010020B2
:10AB000008B5FFF7BBFF034B083033F81000C0F364
:10AB1000401008BD58010020034611F0010010B597
:10AB2000CCB20DD1A207C4F3400012D5094AD2F825
:10AB300020055860C2F82005003818BF012008E041
:10AB40004FF0A041D1F820251A60C1F82025002A35
:10AB5000E8D010BD0003005010B5FFF78FFF124A78
:10AB6000083032F81030D9051CD5C3F3432123F443
:10AB7000F85322F8103002F10E04002034F8023F9E
:10AB800013F4807F03D0C3F3432399420AD00130EA
:10AB90003028F3D1002342F831300448BDE810409A
:10ABA000FFF72ABE10BD00BF58010020D0010020D1
:10ABB000F0B5054600200446012607468C420BD11D
:10ABC000114BD3F87C2132B10022C3F87C21D3F899
:10ABD0007C3140F00040F0BDE3B29B0003F5807291
:10ABE0009B0806FA03F31D420BD002F1804202F5E6
:10ABF000C042D2F800C0BCF1000F02D0176012684A
:10AC000018430134DAE700BF00600040F7B506469C
:10AC10000846FFF733FF194F00F108050C4637F8D7
:10AC20001530DB0727D5304604F013F82046FFF730
:10AC300067FF40B12046FFF74BFF316800F5A27077
:10AC4000002341F820302046FFF786FF002301A8AB
:10AC500027F815300194FFF701FF019B00EB8300FB
:10AC6000074BD0F80027134043F00203C0F8003729
:10AC7000044803B0F0BD0448FBE700BF58010020C2
:10AC8000F0F8FCFF0000AD0B0400AD0B2DE9FF4117
:10AC9000164680460846FFF7F1FE0D463168044629
:10ACA00009B32846FFF720FF18B12846FFF728FF11
:10ACB00010BB0023CDE900338DF80E308DF80F3036
:10ACC0000DF10F020B4628460DF10E0103F069FF4E
:10ACD000474A04F1080132F8113023F0020343F02F
:10ACE000010322F81130736863B328461F7859684E
:10ACF000FFF7FAFE10B1D1B13E4826E03C4A04F11C
:10AD0000080032F8103023F02003DB04DB0C22F8BB
:10AD1000103061B1032FEFD87168496891F800C015
:10AD2000D8F80010A7B90CF5A27C41F82C70304A75
:10AD300004F1080132F8113023F01C0343EA8703C1
:10AD400022F81130B3684BBB2B4804B0BDE8F0814A
:10AD500001EB8C0143EA4C33D1F810E52EF0030EE1
:10AD6000C1F810E5D8F8001001EB8C0E43F0200379
:10AD7000DEF8101522F8103021F44F3121F4407123
:10AD8000CEF810152902DEF8108501F47C5141EA55
:10AD9000074141EA0801CEF81015C8E7D3E900677A
:10ADA0002846FFF7D9FE002ECED0114DD5E900235D
:10ADB000964203D19F4201D1002209E00F480DF1D4
:10ADC0000F01FFF7F5FC0C4B9842BED19DF80F2008
:10ADD00045F8326005EBC20308345F6035F8143083
:10ADE00043EA422343F4807325F81430ACE700BFF4
:10ADF000580100200400AD0B0000AD0BD001002075
:10AE00002DE9F0430C4685B08046204611461E468B
:10AE1000FFF734FE054629B32046FFF765FE18B953
:10AE20002046FFF76DFE18BB314F05F1080937F8D2
:10AE3000193013F01C0F02D04B78012B18D00123CE
:10AE40008DF80F300023CDE900134A1C8B1C2046DF
:10AE50000DF10F0103F0A5FE37F8193043F003039D
:10AE600027F81930002E41D02046FFF73DFE18B9D3
:10AE7000204805B0BDE8F08396F800C0D8F800304F
:10AE80001B4F0CF5A272002143F8221005F10802B5
:10AE900037F8121021F02001C904C90C27F812104C
:10AEA00075781DB3D8F80000B67800EB8C002D043F
:10AEB000D0F8103523F4991323F4F853C0F8103563
:10AEC000230203F47C5305F440353605D0F810E531
:10AED0002B4306F4801641EA4C31334341F0200104
:10AEE00043EA0E0327F81210C0F810350248C0E7F5
:10AEF000580100200400AD0B0000AD0B014BC3E96D
:10AF0000021270475801002010B508461446FFF79A
:10AF1000F7FD50B10846FFF7B1FD054B083033F897
:10AF2000103004485B0B237010BD0348FCE700BFE2
:10AF3000580100200000AD0B0400AD0B70B5164D9C
:10AF400095F8804006462CBB2146602205F1100092
:10AF500004F093FD30682E6F21468E420ED10023FF
:10AF6000C0F87C31D0F87C3140F30730FCF7CAFEE2
:10AF700001230A4885F88030AB6770BDCBB29B00D7
:10AF800003F580727C2B08BF845001F1010108BFDA
:10AF90008358E2E70248F0E7580100200000AD0BBB
:10AFA0000C00AD0B034B93F88000003818BF012054
:10AFB000704700BF580100200148FFF71DBC00BFCB
:10AFC000CC0100200148FFF7F3BB00BFCC010020FB
:10AFD00073B503681646D3F80423002AA8BF4FF0C0
:10AFE00000420546A8BFC3F8042308460C46FFF7F5
:10AFF00087FD00B30846FFF777FD0146D8B9204624
:10B00000FFF766FD04B2A40004F5807203462868C9
:10B010008150296882582144D1F8102542F001025C
:10B02000C1F810252EB12968012202FA03F3C1F8F4
:10B03000043302B070BD2046FFF720FD0F4B0830EF
:10B0400033F81030C3F38203042B12D0052B12D037
:10B0500001A80194FFF702FD019AD0F81035D34002
:10B0600003F00103991C204602B0BDE8704003F0D4
:10B07000E1BD0321F7E70221F5E700BF58010020F9
:10B080002DE9F04F694BDFF8B081D3F80403D8F80D
:10B090007010C0B289B040F00040FFF789FD051E76
:10B0A0002FDAC24600235AF87C1F06A8CDE90633E2
:10B0B000FFF732FD5E4B01930DF118094FF0000BC5
:10B0C000019A12F8013B0192DA0803F007031AF81B
:10B0D000022022FA03F3DA071CD409F10409BBF1B8
:10B0E000000F14D0D8F870104FF00040FFF760FD4B
:10B0F000D8F87C1006A8FFF70FFD0028DAD125F05C
:10B1000000450124002D79D109B0BDE8F08F4FF042
:10B11000010BD5E7474B5B440293D9F80010002997
:10B12000DBD0029B91FAA1F11C78B1FA81F141EADE
:10B1300044142046FFF7A2FC0830059438F810703C
:10B14000C808BB0819F80020039301F00701012388
:10B1500003FA01F122EA010209F8002005A8FFF72D
:10B160007DFC059A039B02F5E072C7F3820650F856
:10B1700022205B073746C2F3014224D520463946D8
:10B18000D6B2FFF785FC05A80594FFF767FC059B81
:10B1900003F5E07350F82330C3F301439E4207D117
:10B1A0000021204603F046FD3146204603F042FDD3
:10B1B00005A80594FFF752FC059B012202FA03F350
:10B1C000C0F82035A9E7022A0CD10321204603F05C
:10B1D00031FD06F00503012BEAD139462046FFF781
:10B1E00057FCE5E702212046039203F023FD032EDE
:10B1F000F3D0039A032ADBD1022EEDE795FAA5F3EB
:10B20000B3FA83F304FA03F29B0003F1804303F5DE
:10B21000C04325EA0205D3F81005D3F81015C0F392
:10B220000520C1F30141FFF733FC6BE700600040EC
:10B230002E0603002E0603005801002010B5184CFE
:10B24000237853BB0278C2F34003920712D54FF024
:10B250008053D3F83021082A0BD1D3F83431052B91
:10B2600007D8104AD35C23B14FF080430122C3F8C2
:10B27000382601234FF08042C2F88035037803F06E
:10B280000103C2F878350020FCF75EFD08B9FCF731
:10B2900039FD01230448237010BD0448FCE700BFBA
:10B2A0006A170020300603000000AD0B0C00AD0B48
:10B2B0004FF080434FF46072C3F80823014B002223
:10B2C0001A607047E016002008B5FFF7F1FF036829
:10B2D0000BB1014A136008BDE016002010B54FF015
:10B2E0008043D3F80443620707D54FF4847003F01A
:10B2F000D8FC10B11E4B1B689847A30608D54FF425
:10B300008A7003F0CEFC18B11A4B00201B689847D6
:10B31000600608D54FF48C7003F0C3FC18B1154BD0
:10B3200001201B689847210608D54FF48E7003F062
:10B33000B8FC18B1104B00201B689847E20508D5EF
:10B340004FF4907003F0ADFC18B10B4B01201B685B
:10B350009847A3050AD54FF4927003F0A2FC28B1D8
:10B36000054BBDE810401B680220184710BD00BF08
:10B37000E8160020E4160020E016002070B5044610
:10B3800088B10378C3B10D4D0D4EB54201D30024F1
:10B3900009E02968A14208D1284603F0E4FC00280E
:10B3A00014BF2C460024204670BD2046FAF7C2FE8A
:10B3B0000028F1D01435E8E71C46F4E730FB020022
:10B3C000BCFB020038B5EFF31185202383F312880C
:10B3D000BFF36F8F064B9C6803F0D8FC85F3118890
:10B3E000BFF36F8F2046BDE83840FCF71BBC00BFA1
:10B3F000EC16002038B5094B53F82040013053F8C3
:10B400002050A54200D838BD636823B1204603F020
:10B41000C0FC0834F5E723689847FAE70802030000
:10B4200070B52B4B2B4C2C4D012286B003201A708B
:10B43000FFF7E0FF01F010FB03F0C7FC0420FFF76B
:10B44000D9FF2646AE4204F1300410D300F0B6FE18
:10B45000204C224EAC4226D300F0C4FE02F081FD07
:10B460001F4A137B23F00103137306B070BD54F819
:10B470000C3C059354F8103C049354F8143C03938B
:10B4800054F8183C029354F81C3C019354F8203CA7
:10B49000009354E90A2354E90C0100F0ABFC54F882
:10B4A000303C5E65CDE7D4E90A23B3F1FF3F08BF26
:10B4B000B2F1FF3F05D052EA0301206803D100F04A
:10B4C0006FFF3034C6E73146183001F015F9F8E760
:10B4D0006B17002040FD020070FD020067F20200C1
:10B4E000B005002008B50348034A0021121A03F0F2
:10B4F00068FC08BD300300207017002070B5144EA2
:10B50000144D1549C02386B003FB006601220023B9
:10B51000CDE904230F22CDE902320193182303FB66
:10B5200000554FF4A072044602FB00110B4B00952E
:10B53000304600F05FFC737B2C7423F004037373BC
:10B54000074BEE60013403EBC4236B6006B070BDA3
:10B55000F0040020EC160020702700206FEE02009F
:10B56000701F0020BFB50020FFF744FF294B83F375
:10B570000888294C294F636943F4007363610025EF
:10B58000E02384F82230E57725766576A57684F881
:10B590002050636A43F4E023636284F82350FCF78D
:10B5A00001FBFCF793FC4FF0FF33A362E362FCF76F
:10B5B00027FDFCF7AFFC1A481A4C00F085FC03F09D
:10B5C000D1FB0120FFF716FF0220FFF713FF00F069
:10B5D0003DFE154B15499C61154B05930123CDE9A3
:10B5E00003534FF480623B46CDE901550095204658
:10B5F00000F000FC627B064622F0040220466273E3
:10B6000003F0F4FD2846FFF779FF3A46314620461D
:10B61000FCF732FC7027002000ED00E021B40200AE
:10B6200050070020B0050020EC160020B0280020B4
:10B630003606030038B5064C064D0020AC4200D358
:10B6400038BD204603F0C2FB0028F9DB1C34F5E7C7
:10B65000300200204C02002073B50C46EFF311813C
:10B66000202585F31288BFF36F8FC5685DB1256013
:10B670002B68C360836901338361002081F31188E3
:10B68000BFF36F8F11E052EA030603D125606FF01C
:10B690000B00F3E7CDE900230246083000F0ECFC94
:10B6A00018B9034B9B685B69236002B070BD00BF93
:10B6B000EC1600202DE9F34104460E4600F108087F
:10B6C000EFF31187202181F31288BFF36F8F006A97
:10B6D000E168884233D22568AC4219D0C5B128460A
:10B6E00003F0D0FB05F1180003F031FEA268686991
:10B6F0003146002404F0B3F92846AC6703F076FD28
:10B700004046394600F034FD204602B0BDE8F081E5
:10B71000A268E069314604F0A2F9E369A268134423
:10B720006269E361934204BF2369E361236A0133E1
:10B730002362002087F31188BFF36F8FE5E752EA99
:10B7400003010AD00649896840464E61CDE90023CD
:10B750003946224600F090FCD7E76FF02200E9E777
:10B76000EC160020F7B5044604F108070846EFF38D
:10B770001186202181F31288BFF36F8F216A00297F
:10B7800039D0A268A16904F06AF9A369A2682568A2
:10B7900013446269A361934204BF2369A361236ACE
:10B7A000AC4203F1FF33236233D02846002D31D061
:10B7B00003F068FB05F1180003F0C9FDA268696990
:10B7C000E06904F04CF9E369A26813446269E3613B
:10B7D000934204BF2369E361236A01332362002497
:10B7E0002846AC6703F002FD3846314600F0C0FC45
:10B7F000204603B0F0BD52EA030110D00949896820
:10B800004861CDE9002331462246384600F034FC39
:10B81000EFE7002086F31188BFF36F8FE9E76FF041
:10B820002200F7E7EC1600202DE9F3410446174605
:10B830001E46EFF31188202383F31288BFF36F8F26
:10B84000C368334A7BB180689168884219D057EA4F
:10B85000060318D188F31188BFF36F8F6FF00F00C4
:10B8600002B0BDE8F081916891F90E1021610133B9
:10B87000E3609368A36088F31188BFF36F8F0020A3
:10B88000EEE72169F2E791F90E1090F90E30994236
:10B89000A8BF19466FF07E029142B8BF11468B4295
:10B8A0002DDD03F0FCFA0546CDE900761948224665
:10B8B000414600F0E1FB0028E1D0EFF311862023A0
:10B8C00083F31288BFF36F8FA068D0B1236821691A
:10B8D0009C420AD04BB193F90E309942A8BF194649
:10B8E0006FF07E039942B8BF194603F0D8FA40B111
:10B8F0000848314600F03CFC6FF00A00B0E7002534
:10B90000D2E7002DF4D186F31188BFF36F8FF3E7F0
:10B91000EC1600206C170020F8B583680546002B54
:10B920003FD0234A926893423ED1C368012B03D98A
:10B93000013BC3600020F8BDEFF31187202383F3A0
:10B940001288BFF36F8F0169806803F0A8FA2C6832
:10B95000A54207D10023C5E9023387F31188BFF35D
:10B960006F8FE7E7002CF5D0D4E9003213605A60FE
:10B97000637B002623F002036373C4E90066A660BC
:10B9800004F1180003F0E3FCAC6094F90E302B6175
:10B990002046A66703F02AFC0648394600F0E8FB7B
:10B9A000C8E76FF01500C6E74FF0FF30C3E700BFF0
:10B9B000EC1600206C17002037B51146EFF3118507
:10B9C000202282F31288BFF36F8F04689CB1236832
:10B9D000426823F003039442036008BF43600121DF
:10B9E000204603F0E0FA044685F31188BFF36F8F19
:10B9F000204603B030BD51EA0302F5D000F1080241
:10BA0000CDE900131046294600F036FB0028EFD19F
:10BA1000014B9B685C69EBE7EC16002070B5EFF317
:10BA20001186202383F31288BFF36F8F0468A0422E
:10BA30001AD0CCB1D4E9003213605A60637B002580
:10BA400023F002036373C4E90055A56004F11800F4
:10BA500003F07DFC2046A56703F0C8FB314608488B
:10BA6000BDE8704000F084BBD0E902329A4218BFB2
:10BA70000133836086F31188BFF36F8F70BD00BF01
:10BA80006C17002013B5EFF31181202484F3128882
:10BA9000BFF36F8F846844B1013C846081F31188E7
:10BAA000BFF36F8F002002B010BD52EA030406D12D
:10BAB00081F31188BFF36F8F6FF00F00F3E7CDE9CB
:10BAC00000230246014800F0D7FAECE76C1700208B
:10BAD0001FB5094A92E8030002AB83E803004FF464
