:020000022000DC
:1060000000410020119E0200F7150300FD9D0200D3
:10601000FD9D0200FD9D0200FD9D020000000000AC
:10602000000000000000000000000000219F0200AE
:10603000FD9D020000000000919E0200FD9D0200F7
:1060400031A1020031A1020031A1020031A1020000
:1060500031A1020031A1020031A1020031A10200F0
:1060600031A1020031A1020031A1020031A10200E0
:1060700031A1020031A1020031A1020031A10200D0
:1060800031A1020031A1020031A1020031A10200C0
:1060900031A1020031A1020031A1020031A10200B0
:1060A00031A1020031A1020031A1020031A10200A0
:1060B00031A1020031A1020031A1020031A1020090
:1060C00031A1020031A1020031A1020031A1020080
:1060D00031A1020031A1020031A1020031A1020070
:1060E00031A1020031A1020031A1020031A1020060
:1060F00031A1020031A1020031A1020031A1020050
:106100004FEA4102B2F1E04324BFB3F5001CDCF1D9
:10611000FE5C0DD901F0004C4FEAC0024CEA507011
:10612000B2F1004F40EB830008BF20F00100704740
:1061300011F0804F21D113F13872BCBF01F0004043
:10614000704741F480114FEA5252C2F11802C2F175
:10615000200C10FA0CF320FA02F018BF40F00100F6
:106160004FEAC1234FEAD32303FA0CFC40EA0C00A8
:1061700023FA02F34FEA4303CCE77FEA625307D1E5
:1061800050EA01331EBF4FF0FE4040F4400070471C
:1061900001F0004040F0FE4040F40000704700BFB6
:1061A00053B94AB9002908BF00281CBF4FF0FF317E
:1061B0004FF0FF3000F00CB8ADF1080C6DE904CEE3
:1061C00000F01AF8DDF804E0DDE9022304B07047BE
:1061D000704700BF10F8012B11F8013B012A28BFBE
:1061E0009A42F7D0D01A7047034613F8012B002AC1
:1061F000FBD1181A013870472DE9F04786468C46C6
:106200000846089E154674461946002B40F0C28089
:106210008542B2FA82F245D94AB1C2F1200300FAAE
:1062200002FC2EFA03F3954043EA0C0C94404FEA2B
:10623000154EA8B2BCFBFEF8230C0EFB18CC08FBD5
:1062400000F943EA0C43994528D9EB1808F1FF37C8
:1062500004D2994502D9A8F102072B44A3EB090304
:10626000A4B2B3FBFEFC0EFB1C330CFB00F044EAB3
:106270000344A04214D92C190CF1FF3304D2A042DC
:1062800002D9ACF102032C44241A43EA07401EB1A0
:10629000D440002334607360BDE8F0874746DDE7F3
:1062A0006346F1E792BB431B01214FEA154EAFB2A3
:1062B000B3FBFEFC200C0EFB1C330CFB07F840EA82
:1062C0000343984562D9EB180CF1FF3004D298458E
:1062D00002D9ACF102002B44A3EB0803A4B2B3FB38
:1062E000FEFC0EFB1C330CFB07F744EA0344A742F9
:1062F0004ED92C190CF1FF3304D2A74202D9ACF1CC
:1063000002032C44E41B43EA0040C0E7C2F120032F
:1063100020FA03F1954090402EFA03F303434FEA2D
:10632000154EAFB2B1FBFEFC0EFB1C10190C0CFBA2
:1063300007F841EA0041884504FA02F422D96918B5
:106340000CF1FF3004D2884502D9ACF10200294497
:10635000A1EB08019BB2B1FBFEFC0EFB1C110CFB78
:1063600007F743EA01439F420ED9EB180CF1FF31C6
:1063700004D29F4202D9ACF102012B44DB1B41EA5B
:10638000004192E76046E3E76146F7E76046A3E72E
:106390006346B7E7834206D916B9002108467BE772
:1063A000C6E900E0F9E7B3FA83F78FB9834201D376
:1063B000724508D8BEEB020460EB030301209C4643
:1063C0001EB9002168E73846FAE7C6E9004CF8E74D
:1063D000C7F1200CBB4022FA0CF41C432EFA0CF13E
:1063E00020FA0CF3B84001434FEA14490EFA07F5BE
:1063F000B3FBF9F81FFA84FE09FB18300B0C08FBFD
:106400000EFA43EA00439A4502FA07F240D9E3182C
:1064100008F1FF3004D29A4502D9A8F102002344C2
:10642000A3EB0A0389B2B3FBF9F809FB183308FBA5
:106430000EFE41EA03418E452CD9611808F1FF3365
:1064400004D28E4502D9A8F10203214443EA004058
:10645000A0FB0298A1EB0E014145CE46434602D374
:1064600006D14D4504D2B9EB020E68EB04030138A6
:10647000002EA6D0B5EB0E0261EB030101FA0CFC75
:1064800022FA07F34CEA0303F940C6E9003198E722
:106490004046C5E74346D9E7F8B510EE904A34F0D8
:1064A00000472DED048B10EE103AB0EE609A0DD13E
:1064B00083F480035B0013F5000F40F2098230EE95
:1064C000098AB0EE480ABDEC048BF8BD23F0004009
:1064D000B0F1FF4F02D8B7F1FF4F08D9B3F17E5F9B
:1064E000EDD184F48004640014F5000FE5E7002B7F
:1064F00001462DDAB7F1974F0CD3B7F1FF4F2AD0F1
:106500000225B4F17C5F41D1002BC0F28F80B1EE47
:10651000C08AD6E7B7F17E5F31D3FA15C2F1960291
:1065200047FA02F505FA02F2BA423DD1B7F17E5FB1
:106530004AD1002C80F2D281B5EE400AF1EE10FA79
:1065400050D1D80FBDEC048BBDE8F84009F072BE05
:10655000B7F1FF4F3DD1B0F17E5F00F0B98108D9AE
:10656000DFED977A002CB4BFB0EE678AB0EE498AAF
:10657000A7E7002C80F2AF81B1EE498AA1E7B4F120
:10658000804F34D0B4F17C5F5CD0002523F04042D2
:10659000B2F17E5FB0EEC08A3FD1002CBCBFB7EE37
:1065A000007A87EE088A29E0B7F17E5FC1D0002526
:1065B000B4F1804FEAD1B0F1BF4F1AD2B0F1D05F41
:1065C00029D920EE008A7CE705F00105C5F1020516
:1065D000EEE7B7F17E5FACD0B4F1804F4FF000052D
:1065E000E9D08EE7B7EE007A87EE008A69E70025EA
:1065F000E1E7B0F1FF4FB0EEC08A35D1002BBFF616
:1066000060AFA0F17E50284316D1BDEC048BBDE8ED
:10661000F84009F01DBEB0EEC08A28BB002C1EDA7F
:10662000002B8FDA6B1E584258418BE7B0F1FF4FB9
:10663000B0EEC08A40F05581012D7FF442AFB1EE3B
:10664000488A3EE7B0F1FF4FB0EEC08A3FF439AF61
:10665000B0F17E5FD9D000283FF433AFD5E7012DEC
:1066600008BFB0EE408A2CE7DE0F013E55EA060275
:10667000CBD0B7F19A4F40F24081524B984208D8A4
:10668000002C0BDA0020BDEC048BBDE8F84009F0CB
:10669000C3BD4D4B984208D9002CF3DC0020BDEC63
:1066A000048BBDE8F84009F0A9BDB7EE007A38EEDA
:1066B000478ADFED467ADFED469A3FA1D1E9000136
:1066C00068EE278AFFF71CFD07EE900AB5EE007A08
:1066D00048EE477AB6EE007A07EEC87A68EE087A96
:1066E000DFED3C6A27EE277AF0EE687A47EE667AAD
:1066F00068EE299A39EEA77A17EE103A23F47F63F1
:1067000023F00F0307EE103A77EE699A77EEE97AF5
:10671000013D24F47F643543B7EE007A24F00F0482
:10672000BFEE008A18BFB0EE478A07EE104A67EE48
:10673000890A39EE477A07EE903A47EE270A07EEC4
:10674000104A67EE877A30EEA77A17EE101A002902
:1067500021F000431ADDB3F1864F09D9B5EEC08AA6
:10676000F1EE10FA4CBF012000208CE70120E5E09B
:1067700036D1DFED196A37EE677A70EEA66AF4EE6D
:10678000C76AF1EE10FAE9DC86232DE0134A934242
:1067900007D9B5EEC08AF1EE10FA4CBF01200020F7
:1067A0007DE71DD137EE677AB4EEE07AF1EE10FAAC
:1067B000EADBEEE7AFF30080E13D55555555D53F97
:1067C00000000000F3FF7F3F0700803F70A5EC361C
:1067D00000AAB83F3BAAB83F3CAA38330000164392
:1067E000B3F17C5F6FD9DB157E3B4FF4000018419D
:1067F0000844C0F3C753A04A7F3B1A41024007EE4A
:10680000102AC0F3160040F40000C3F1170318412A
:10681000002977EEC77AB8BF404237EEA07ADFEDA5
:10682000976ADFED975A9FED976A17EE103A23F4B7
:106830007F6323F00F0307EE103A77EE677A67EE77
:10684000266A70EEE70ADFED907A67EE277A9FED11
:106850008F7A40EE877AB7EE000A36EEA77A77EEA7
:10686000666A77EEE67A67EE076A47EE277A16EEF3
:10687000A56ADFED875A46EE265A9FED866A15EE29
:10688000A66ADFED855A46EE265AB0EE476A05EE57
:10689000E66AF0EE006A67EE065A36EE666AC5EE04
:1068A000866A76EEE77A77EEC77A30EE670A10EE00
:1068B000103A03EBC053B3F5000F06DA09F058FCA9
:1068C00020EE088AFDE50020A7E700EE103AF7E782
:1068D000B7EE008AF5E59FED718AF2E5B0EE408AE9
:1068E000EFE5B0F17E5F3FF48CAE00283FF4B7AE29
:1068F000002D3FF48AAE0225002613F0FF4F08BF9B
:106900009FED677A674802BF68EE077A6FF017035A
:1069100017EE901A4FEAE15218BF00237F3A1A444B
:10692000C1F31603834243F07E5106DD5E48834285
:106930007FF71CAF0132A1F5000100205B4B03EB98
:106940008003D3ED005A5A4B06EE101A75EE867A84
:10695000F7EE006AC6EEA74A491041F0005101F572
:10696000802101EB405136EE657A07EE901A27EE52
:10697000245A15EE107A1F4006EE907A06EEE77A5A
:1069800077EEE57ADFED4B5A36EE676A65EE057A0B
:1069900006EE667A9FED486A47EE865A9FED476A93
:1069A00005EEA76ADFED465A46EE275A9FED456A87
:1069B00005EEA76ADFED445A46EE275A27EE247A01
:1069C00036EE856A67EEA77A26EE076A05EEA76AB5
:1069D00066EEA64AF0EE085A74EEA57A77EE867A4D
:1069E00017EE901A194007EE901A77EEE55A27EE47
:1069F000277A75EEE45A66EEA76A36EE656A06EE09
:106A0000057A9FED326A76EE877A17EE901A194072
:106A100007EE901A77EEE66A27EE866A37EE667A18
:106A2000DFED2B6A2B4967EEA67ADFED2B6A47EE86
:106A3000267A01EB800191ED007A77EE877A07EEF6
:106A4000102A264A02EB8002D2ED005A76EE276A1F
:106A5000B8EEC77A76EEA56A76EE876A16EE902AC9
:106A6000134006EE903A36EEC77A37EE657A37EE87
:106A7000467A77EEC77A4BE6000080FF0072313F1E
:106A80004CBB31330EEADD358CBEBF351872313F59
:106A900055B38A38610B363BABAA2A3E0000000092
:106AA0000000804B71C41C00D6B35D00AC430300F2
:106AB00000F0FFFF55326C3E42F1533E05A38B3E82
:106AC000ABAAAA3EB76DDB3E9A99193F0038763FD4
:106AD000A0C39D369C4303004F38763FA443030078
:106AE000014807F05BBA00BFB8000020014807F07A
:106AF00055BA00BFA800002007B50BF069FC4FF4A1
:106B00007A72A0FB020302FB0131C00B074A40EA84
:106B10004140106000234FF400420548CDE90023B6
:106B200008F0BCF8002003B05DF804FB401A002018
:106B3000B8030020014B187800F07AB9922B00209E
:106B4000044B1A78824202D01870FFF7F3BF00207E
:106B5000704700BF922B002008B50BF039FC4FF4B2
:106B60007A72A0FB020302FB0131084AC30B1268D0
:106B700043EA41439B1A47F23052934204DDBDE899
:106B800008400120FFF7DCBF08BD00BF401A00200D
:106B900008B50BF01DFC4FF47A72A0FB020302FB58
:106BA0000131C00B044A40EA41401060BDE8084092
:106BB0000020FFF7C5BF00BF401A0020F8B504460B
:106BC00010B900252846F8BD0378002BF9D00F4EE8
:106BD0000F4FBE420FD30D4EBE42F2D230680BF0C3
:106BE000CDF830B1356821462868FFF7F3FA002860
:106BF000E8D00436F0E730680BF0C0F818B135681B
:106C00002B68A342DED00436E3E700BF384F030011
:106C1000A04F030070B5194C194D8CB00022002311
:106C200003A9204606F0EAFE08B10CB070BD2B683F
:106C3000059E5868DDE9031209F01BFC0028EDDB16
:106C4000FF238DF81830B6FA86F35B0907908DF8AC
:106C500020300BF0BDFB4FF47A72A0FB020302FB65
:106C60000131C00B40EA4140C90B8DE8030006AB7F
:106C7000CDE90A010FCB00F0EBF8CFE74804002084
:106C8000DC1A00201FB50A4C2468A46884420DD188
:106C900083F00103CDE9011203930648002200238B
:106CA00001A906F053FE044807F078F904B010BDBE
:106CB000DC1A002048040020CC1A0020014B03609D
:106CC00022207047441A002038B5044628B3144DDA
:106CD0002B6883421FD02BB1986818B183685B681A
:106CE00003B198470F49104B8C4214BFED2100218E
:106CF0002222002009F0D7FB00280DDBA0682C60C1
:106D000048B1836809491B6898472B68986883686D
:106D10009B6803B19847002038BD6FF01200FBE775
:106D2000DC1A0020F0330300441A0020856C0200B6
:106D30000148FFF7C9BF00BFF033030008B507499A
:106D400007480BF0D0F9074A002342F8043B01330F
:106D5000222BFAD1BDE80840FFF7EABF156C02000C
:106D6000CC1A0020441A0020F8B50F4D0F4E761BA8
:106D700007460C4605EBC105C6F3C706A64201DC73
:106D800000200CE02A683B689A4209D13C716B688C
:106D900038461B68984718B1431E012BF0D9F8BD3F
:106DA00001340835EAE700BFAC490300044A030098
:106DB00070B40D4B0D4CE41A0022C4F3C704A24278
:106DC00003DB6FF0150070BC70471E680568AE42AB
:106DD00002F1010206D15D688D4203D170BCD1B2CF
:106DE000FFF7C2BF0833EAE7AC490300044A0300D7
:106DF0000D4B0E4AD21A70B4C2F3C702002494425B
:106E000003DB6FF0150070BC70471E680568AE426A
:106E100006D15D688D4203D1E1B270BCFFF7A4BF1B
:106E200001340833EBE700BFAC490300044A030018
:106E30001FB50023CDE90233044B8DF80C0001A8E7
:106E4000019309F03DFB05B05DF804FB0C34030031
:106E500084B030B589B00CAC84E80F0000230193F6
:106E60000CAD084B00930FCD02AC0FC495E80300A6
:106E700084E80300684609F023FB09B0BDE8304010
:106E800004B07047103403000268034B9A420CBFF1
:106E900008300020704700BF103403001FB50023E6
:106EA000CDE90233044B8DF80C0001A8019309F0E1
:106EB00007FB05B05DF804FB1834030082B038B559
:106EC00004A981E80C000546114806F0A3FB04461E
:106ED000A0B16B68012B0CD0022B05D0A3B9BDE883
:106EE000384002B009F014BB09F019FB0028204615
:106EF000F5DCBDE8384002B009F003BB6FF00400D8
:106F0000BDE8384002B070476FF08500F8E700BF79
:106F10003246030082B010B502A981E80C00044695
:106F20000B4806F077FB78B16368022B04D0002091
:106F3000BDE8104002B0704709F0F1FA0028CCBF5C
:106F4000002001206060F2E76FF00400F0E700BF6E
:106F50003246030002460249024809F038BB00BF2E
:106F6000101B00207434030002460249024809F055
:106F70002EBB00BFF81A0020643403000246024909
:106F8000024809F024BB00BFE01A0020543403007B
:106F9000014B1878704700BF962B00200D4A52F81D
:106FA0002030013342F820300B4A0123117883400E
:106FB0000B430A490978DBB2137023EA010308493D
:106FC000084A097850780B43181A537018BF0120EB
:106FD000704700BF3C1B0020962B0020942B002004
:106FE000952B00206D03002010B5114A52F8203077
:106FF000002B19DD013B42F820300E4A2BB91378E3
:107000000121814023EA010313700B480B4B0478E4
:1070100010780B4A5978127820EA0400104358700F
:10702000401A18BF012010BD6FF01500FBE700BF2C
:107030003C1B0020962B0020942B00206D03002089
:10704000952B0020044A012312788340D8B21340C4
:107050001B1A584258417047962B002010B5084B18
:10706000084A1870084B51781C78084B1B7823EAA3
:10707000040318435070401A18BF012010BD00BF10
:10708000952B00206D030020942B0020962B0020D0
:10709000074B00221A70074B074A1978074B5078A4
:1070A0001B7823EA0103181A537018BF0120704798
:1070B000952B0020942B00206D030020962B0020A0
:1070C000A0F1E003072B03D82030C0B2FFF766BF62
:1070D000064B062213F8011F19B1013AFAD100201C
:1070E000704718700028F8D0F9E700BF6F03002040
:1070F000A0F1E003072B10B405D820305DF8044B55
:10710000C0B2FFF771BF0023064A194612F8014FBB
:107110000133A04208BF1170062BF7D100205DF8A3
:10712000044B70476F030020A0F1E003072B03D846
:107130002030C0B2FFF786BF064A002312F8011FB5
:10714000884204D00133062BF8D10020704701207B
:10715000704700BF6F030020B0F5805F10B510D2FC
:107160000949002301EB4302B2F8014024B1013385
:10717000062BF7D1002010BDA2F801000028F6D0A0
:10718000F8E76FF08500F6E76003002030B50023D4
:10719000074C194604EB43020133B2F80150854213
:1071A00004BF51709170062BF4D1002030BD00BF98
:1071B00060030020074A002302EB4301B1F80110ED
:1071C000814204D00133062BF6D100207047012004
:1071D000704700BF60030020042810D8094A52F805
:1071E0002030013342F82030074A012311788340D0
:1071F0000B43DBB21370054A0020537070476FF0E9
:1072000015007047281B0020932B002056030020F8
:10721000042814D80B4A52F82030002B0FDD013B14
:1072200042F82030084A2BB913780121814023EA23
:1072300001031370054B12785A70002070476FF0ED
:1072400015007047281B0020932B002056030020B8
:10725000014B58809980704756030020014B1881DC
:10726000D9807047560300202DE9F0410B4E33784A
:1072700083B10B4CDFF82C80002542F20F772046BB
:10728000414601350AF06AFF0A2D44F8207C04F1DA
:107290005804F4D100203070BDE8F081760300205E
:1072A000980B0020AB09030030B5C269037ED17D85
:1072B00091B0044609B1032B39D0023B012B517D1B
:1072C00007D8002933D1204611B0BDE8304009F07D
:1072D00043BB21B1937D13B9204609F0DFFA0AAD13
:1072E0001822002128460BF0E4FB23798DF8383072
:1072F0000023CDE907330993E36922689B6807936C
:10730000D4E90401E36808930A4B0B92CDE90C0120
:10731000C3E902011A600123049310AB13E90F00C3
:107320008DE80F0007A895E80C0009F036F811B0B9
:1073300030BD00BF000000200B4A30B500230446DA
:10734000282000FB03F18D18515C41B90FCC0FC50B
:107350000FCC0FC594E8030085E8030030BD01336E
:10736000282BEED1FAE700BF380500202DE9F843BD
:10737000027E0346002A6ED13B4D2A6882426AD1C2
:10738000D269547D24B119B9BDE8F84309F0E4BAD3
:10739000107D032828D8DFE800F0020E1F600139B5
:1073A000042921D8DFE801F01E0320051E00022178
:1073B00019E0032117E00139042915D801A050F87C
:1073C00021F000BFE5730200E9730200AF73020011
:1073D000B3730200E57302000429EAD001F0FB0157
:1073E000012901D101211976197EA1B3D0690028A4
:1073F0000DDD5C6D611C0AD01C32002152F8046F57
:10740000A64204D001318842F8D101221A76002226
:1074100018462A60FFF748FF2C68E4B9134EDFF8DE
:107420005080A14616F8087CAFB12B6806F8089C7E
:1074300023B14FF4A47000210AF051FF012F01D0B5
:10744000022F03D141463046FFF7D2FC0134282CED
:1074500006F12806E6D1BDE8F8830229A7D0BFD9F6
:1074600004390129BED9BFE75C1B0020400500207C
:107470007C37030082B02DE9F0412F4E06A981E848
:107480000C000024582202FB04F0851931588B426D
:107490004AD1203030440AF06FFEEB691968D5E913
:1074A00004238A1843EBE17308998A42099A9341AD
:1074B000804603DA04212846FFF758FF582707FBC8
:1074C000046701212846FFF751FFFB69DB7D53B1BB
:1074D0003B7E032B07D1284609F008FA01232846F2
:1074E0003B76FFF7E1FE284609F000FA582303FB3C
:1074F0000463DB695A7D22B19B7D13B1284609F0F4
:10750000CDF918F1770F4FF058031DBF5C4342F2DD
:107510000F72331903FB046317BF3251012200229B
:107520001A7683F8502002E001340A2CABD1BDE872
:10753000F041002002B07047780B002082B02DE9A6
:10754000F047044608A9006881E80C0008F0CFFE67
:107550003B4B1D687DB9D4E901C23A4F4FF0580E3C
:1075600042F20F780EFB05F6F419B959414507D0E0
:1075700001350A2DF6D1BDE8F047002002B0704772
:10758000D0F804809DF83010DDF82490DFF8B8E0E2
:107590002171C4E902C2DDE90AC0C4E904C00021C6
:1075A0004FF0FF3247F8069021766265C4F81C80E0
:1075B000DEE902211C60D8F8103013EB020A41EB1F
:1075C000E373D44570EB03030CDBDEF80030994520
:1075D0000CD1D8F80C309A1841EBE371944570EB5C
:1075E000010103DA05212046FFF7C0FE20460021F5
:1075F000FFF7BCFE582303FB0575D8F80040296946
:107600000C440AF0E5FE4FF47A72A0FB020302FB81
:107610000131C30B43EA4143E11A21EAE17140F22F
:10762000E7304FF47A72002300EBC1304914FEF7C3
:10763000B7FD203602460B46B81906F01DFD9AE745
:107640005C1B0020780B0020000000202DE9F04199
:107650008AB00446FFF718FC00286CD02046FFF7DC
:1076600013FC524D47680446002642F20F782B68FF
:107670009F420CD043450AD0EB69DB7D3BB12B7EAA
:10768000032B04D102232B762846FFF70DFE01368B
:107690000A2E05F15805EAD1454D286808B90020A1
:1076A0002CE0C369227A197E914204D0426D0132E6
:1076B00004BF62684265016862689142EFD0196850
:1076C000D0E904238A1843EBE173D4E90461B242A0
:1076D0008B4116DB237ADBB10123214602A88DF80A
:1076E000003008F0F5FE6846FFF726FE217A28688C
:1076F000C1F10301C9B2FFF739FE02200AB0BDE8AB
:10770000F0810421FFF732FE2B68002BC7D0E1E7A0
:107710006068284A11780029C1D0012905D1516932
:10772000884202D1117E0029D6D10133282B02F1E3
:107730002802EFD1B3E7204601F026F90028DDD07A
:10774000204601F021F9837A01469BB14368E03B72
:10775000072B02D80378072B0CD0174BD1E9040272
:10776000D3E9025485429441BEBFC3E902024FF0FF
:1077700000441C600E4B18680028BFD04B68E03BEB
:10778000072B8CD80B78072B89D1C3695B7D13B18C
:10779000007E0028B2D002A802248DF8004009F033
:1077A000D7FB6846FFF7C8FDA7E700BF780B0020AE
:1077B0005C1B002038050020000000202DE9F0416E
:1077C0000B4E337883B10B4CDFF82C8000254FF043
:1077D000FF372046414601350AF0C0FC0A2D44F827
:1077E000207C04F15804F4D100203070BDE8F08111
:1077F00077030020080F00203D0A03002DE9F04F19
:10780000A3B001F0C1F8044600287FD0037A47688E
:107810000293837A0393036901930DF1380BA7F167
:10782000E003B0F80080D0F814A0DFF8349104939E
:1078300018AD5E46D9F800200023013246F8043B1B
:1078400045F8043B37D0D9F80C204449906805929C
:10785000FEF7C0FC059A60B9D9F8081088B2B842A2
:1078600007D1C1F30740404503D1029BB3EB116F31
:1078700021D0039B002B5ED0927932B1049B072B61
:1078800003D85FFA88F2072A15D099F8502092B9E8
:10789000D9F854207AB9484609F0DFF8D9E9061238
:1078A00051EA020035D0019B994272EB0A0230DAAC
:1078B000484609F0B8F818AB9E4209F15809B9D109
:1078C00000255BF8040B18B1019A534609F0CFF874
:1078D00001350A2DF5D10025DFF88880284618AF3C
:1078E00057F8256076B138B9214606A809F030FB73
:1078F000414606A8FFF75CFA019A5346304609F064
:1079000065F8012001350A2DEAD1400023B0BDE819
:10791000F08FD9F80C20517909B146F8049C99F8F8
:10792000101019B112790AB145F8049C89F85080F9
:10793000C9F85470BFE799F81020002ABBD099F815
:1079400050204245B7D1D9F85420BA42B3D1484665
:1079500009F083F845F8049CADE700BFBB4703007E
:10796000E80E00209437030082B02DE9F041044670
:1079700006A9006881E80C00DDE9088708F0B7FC7B
:1079800043682D48079AD3F808C06668002104466A
:1079900003689A423BD1C3689D68AC4537D185687E
:1079A000AE4234D1457C95BB58254D43601990F8C3
:1079B0005020B2BB582202FB014101220A741E680A
:1079C00016EB080647F10007C1E906670AF000FD5B
:1079D0004FF47A72A0FB020302FB0131C30B43EAAE
:1079E0004143F61A002E17DD4FF4004740F2E7300E
:1079F00000214FF47A720023E6FB0701FEF7D0FB6B
:107A0000203502460B46601906F036FB04E00131D2
:107A10000A2900F15800BBD1BDE8F041002002B0B6
:107A20007047426D002AC5D042463B46BDE8F04152
:107A300002B008F0CBBF00BFE80E002082B02DE9F5
:107A4000F84F82460AA900682E4E81E80C00DDE955
:107A50000C4508F04CFC4768DDF82C90DAF804007F
:107A6000D7F808C033460022B0461968894526D1A8
:107A7000D96889688C4522D1996888421FD1597C80
:107A8000E9B94FF0580B0BFB028B584608F0E5FFA5
:107A900022462B46584608F099FFDAF804100023D6
:107AA0003268013201D1727C7AB101330A2B06F1BE
:107AB0005806F5D1BDE8F84F002002B070470132FA
:107AC0000A2A03F15803D0D1E7E75820434308EBD3
:107AD000030048F803904FF000084FF00009C0E998
:107AE0000217C0E906899DF838300371028280F8D8
:107AF000502042657B79002BDCD122462B4608F0D2
:107B0000B6FFD7E7E80E00202DE9F04700F03CFF74
:107B100008B1837AF3B90020BDE8F087037A43F017
:107B200002030372F7E7232BF5D9A5F1E003072B36
:107B300023D8F3B2072B20D1EDE7A3689D4225D1CE
:107B400094F80C80FFF724FA49EA000038EA0008AC
:107B50001CD1E0E7104F3B78002BDCD0068845684D
:107B6000072EA5F10403DBB2DDD1192BD6D9232BC7
:107B7000D1D9A5F1E003072BCDD9084C90F8089096
:107B800004F1240AEDB2A388B342D6D00C34544594
:107B9000F9D100233B70BEE7972B0020B0370300DC
:107BA00070B50D6804460E4628462349FEF712FBC1
:107BB00010B92072012070BD20492846FEF70AFB4B
:107BC00010B901232372F5E71D492846FEF702FB91
:107BD00008B90223F6E71B492846FEF7FBFA10B95D
:107BE00073686360E6E718492846FEF7F3FA10B9B0
:107BF00073682360DEE715492846FEF7EBFA10B9F3
:107C00000123A373D6E712492846FEF7E3FA10B919
:107C10000123E373CEE70F492846FEF7DBFA08B9E4
:107C20000223EEE70C492846FEF7D4FA08B90223EE
:107C3000EFE70020BFE700BFAA460300B4460300F9
:107C4000C0460300CE460300DD460300ED460300B8
:107C5000FE4603000F470300204703002DE9F047CD
:107C6000D0F804900469D9F80830DFF84CA02361FB
:107C700000256381A58109F10C07D9F80830AB42D2
:107C800012D939462046FFF78BFF6E1C804680B91B
:107C900038685146FEF79EFA48B9B6B26681D9F8FF
:107CA000083025619B1BA3810020BDE8F087A4F864
:107CB0000E8035460C37E0E73147030008B5034630
:107CC0000069034903630AF049FA002008BD00BFB8
:107CD000A57D0200F8B52DED028B0C46B1F904101C
:107CE000054631B99FED2D0A84ED000ABDEC028BEB
:107CF000F8BDD4E9027657EA06004CD0A888C0192E
:107D000046F10006121A63EB0603012A73F1000024
:107D100041DB4FF47A7607EE901AA2FB062106FBB0
:107D20000311E888D30B43EA414398424FEAE1311B
:107D30004FF000028A41B8EEE78A14DB98B16A7A04
:107D40008AB107EE100A07EE903AB8EEC70AF8EECD
:107D5000E77A07EE102A87EE800AF8EE470AFEF768
:107D60009BFB28EE008A2B7ADFED0D6A07EE103AB6
:107D7000B8EEC77A27EE087AC7EE267A94ED007A35
:107D800077EE877ABDEEE70AB8EEC00A77EEC07AE2
:107D9000C4ED007AAAE7DFED017AEFE7000000000A
:107DA00000007A442DE9F0412DED028B076B84B081
:107DB0007E6804460AF00CFB0D4602460B468046E0
:107DC00004F138013046FFF785FF2B46424604F1A7
:107DD00048013046F0EE408AFFF77CFFFDEEE87A7E
:107DE000B0EE408A17EE903AFDEEC07A1BB217EE65
:107DF000902A15B2EBB1DFED2F7A3288F4EEE78AE4
:107E0000F1EE10FA4CD9DFED2C7AF4EEE78AF1EEC0
:107E100010FA47F6FF7158BF0B4600200021CDE94C
:107E20000201B5FA85F1490900913846022102F0B4
:107E300005FBDDB1DFED1F7A7288B4EEE78AF1EE63
:107E400010FA2FD9DFED1C7AB4EEE78AF1EE10FAC2
:107E500047F6FF7348BF2B4600200021CDE9020101
:107E6000012100913846022102F0E8FAB4F93C30D1
:107E700013B9B4F94C30BBB1307AC0034FF47A7205
:107E8000002300F2E7300021FEF78AF902460B4694
:107E9000204604B0BDEC028BBDE8F04106F0ECB822
:107EA000064BBAE7054BD7E704B0BDEC028BBDE843
:107EB000F08100BF000000C700FEFF460080FFFF0A
:107EC0002DE9F043124B134C134DD3E9067E0646C1
:107ED000002002464FF0010C2B680CFA02F813EA5E
:107EE000080F0DD0236913EB07094EEBE3734E45E2
:107EF00071EB0303A5BF2B6823EA080301302B6055
:107F000001320B2A04F12804E6D1BDE8F08300BF5A
:107F1000E014002070380300741C002070B5094B79
:107F2000094D1E7800241C702EB1284608F0CBFAAB
:107F30000134B44201DB304670BD2035284608F0DC
:107F4000BFFAF5E7992B0020E01400202DE9F04F4F
:107F500043488FB00AF010F9424B00261E60424B96
:107F6000B3F9009047F6FF73994565D03F4F6823FA
:107F70004FF6FF7203FB06F0C419395A914252D1F1
:107F80003B49DFF8FCB00A7801320A70394A3A49B5
:107F900092F800A01FFA89F328223B5202FB03B398
:107FA0000830B3F90C80D045A8BFD04628EAE87263
:107FB000520138440AF06FFD4FEA4813DFF8B8C0A9
:107FC000A4F80280C6460793D6453ADB294BAAEBB4
:107FD000080A83F800A0682303FB067708AC18267C
:107FE0003246002120463D6A0AF063FD09F1220372
:107FF0000993FF238DF83030204BEA17C3E9005274
:10800000CDE90A52282319FB0369012304930EAB1F
:1080100013E90F008DE80F000BEB090094E80C004A
:1080200008F0BBF904E00136042EA3D1FFF776FF78
:108030000D4A47F6FF7313800FB0BDE8F04FFFF70E
:108040006DBF079B0CEB03050FCD64460FC495E88D
:108050000F000EF1010E84E80F000CF1200CB3E7C5
:1080600010130020741C0020540300204013002033
:10807000982B0020992B0020E014002010000020F5
:1080800070380300F8B5154B15491648164D4FF6D4
:10809000FF721A80A3F86820A3F8D020A3F8382133
:1080A0000AF05CF8114B00224FF0010CB3F90CE020
:1080B0000CFA02F71C46002107E054F8046B55F84F
:1080C0002600384345F8260001317145F5D30132C9
:1080D0000B2A03F12803E9D10020F8BD401300204A
:1080E0000982020010130020EC1B002070380300EE
:1080F0002DE9F8433E4B3F4E1C78D6E90027E4BB00
:1081000002F1004301333B4335D06FF000450AF0E4
:108110005FF94FF47A77A0FB070307FB0131C30B2C
:1081200043EA4143AB424FEAD131A1415DDA0AF063
:108130004FF9A0FB070307FB0131C00B40EA4140A8
:10814000281A64EBD131C90341EA504140F2E733C8
:10815000C003C0184FF47A724FF0000341F10001E0
:10816000FEF71EF802460B46234805F085FF00285F
:10817000A8BFC6E90054BDE8F88300241F49DFF812
:1081800084E06FF0004523464FF00108DEF8000060
:1081900008FA03FC1CEA000F08D008694FEAE07CEB
:1081A000A8427CEB0409BCBF0546644601330B2B97
:1081B00001F12801EAD11249D1E90631ED1844EB69
:1081C0000104A74208BFAA42D5D06FF000439C42E9
:1081D00008BFB5F1FF3F9AD100230022C6E9002372
:1081E0000548BDE8F84309F0C7BF00221346BBE7C6
:1081F000992B002008130020101300207038030072
:10820000E0140020741C002038B5114CD4E9003271
:1082100013431CD00AF0DCF803460D46D4E90001F4
:108220004FF47A74A3FB043204FB0522DB0B43EA10
:10823000424383424FEAD2328A4108DBFFF740FED5
:1082400008B9FFF783FEBDE83840FFF751BF38BDDE
:10825000081300202DE9F04F9DB00446FEF714FEF0
:10826000002800F06B812046FEF70EFE0546002830
:1082700000F07F81067A002E00F0AA80A64EA74F5C
:108280003478D0E90498002C49D1D0F804A008F043
:1082900018FE012303FA00FCA14BA2481A68DFF87C
:1082A00088E25B68069207EB8A0A07932246DAF8AF
:1082B0000030012101FA02F73B4216D0436913B1A5
:1082C00013EA0C0F11D0B0F90E30069913EB010B25
:1082D000079941EBE373D94578EB0303A1BFDEF8BF
:1082E00000301F43CEF80070013401320B2A00F138
:1082F0002800DCD1002C00F03C813378032B36D1F0
:10830000FFF7F6FE0025884A136813F001035DD1DC
:10831000012101330B2B43D16FF0150552E0484684
:108320004146FFF7CDFD804B6A6857F822401A6836
:10833000144032781C6013463CB9032A17D1FFF76A
:10834000D7FE2546FFF702FE3CE0611E0C4006D139
:10835000032A0BD12546FFF7CBFE0124D3E7032ADE
:108360001CD1FFF7C5FE00250224CCE701246F4F86
:1083700007EB43175A1C29460CA83D460CAF327038
:1083800008F0A6F80FCF0FC597E80F0085E80F009B
:10839000FFF7AEFE0225002CB5D1D3E70224E6E7B5
:1083A000106801FA03F70742B3D05E4A282101FBA7
:1083B0000322B2F90C103278914203D15C4A012CAD
:1083C0001380BFD028461DB0BDE8F08F0023ECE736
:1083D000FFF7BCFD6B6809932B690793554B564F0C
:1083E0001B7808900B93B9460B9B9E420CDB089BB5
:1083F000012B40F3BE80294614A808F069F814A8A0
:1084000008F05EF80225DDE77B88B7F80080069368
:10841000444B282202FB08334FF0000CB3F90C3018
:108420000A93BE46E2460124069B534513DC683797
:10843000BCF1000F6DD0069A682303FB0693013A46
:108440005A80384B282202FB083393F82430FBB1C2
:1084500014BB0125B6E7BCF1000F10D00EF1080BDC
:10846000BBE80F00AEF118040FC49BE80F0084E8CE
:108470000F0000240AF1010A0EF1200ED4E7DEF805
:108480001430099A9A4214BF00244FF0010CF1E70E
:10849000069B0A9A934220D114AD18220021284647
:1084A0000AF007FB08F122031593079B079ADB17D5
:1084B000CDE916231B4AFF238DF86030282303FBE8
:1084C00008280023049316AB0FCB8DE80F0008F1AA
:1084D000180095E80C0007F060FF002CB9D0154B90
:1084E0001C78013CE4B2A6421C7006D0682204FB52
:1084F000029102FB06900AF0CEFA68225443002152
:1085000009EB04000AF0D5FA4FF6FF7329F804309E
:108510009FE7013668E700BF992B0020EC1B002085
:108520001800002070380300741C0020E0140020A4
:1085300054030020982B002040130020204600F018
:1085400023FAB0B1204600F01FFA837A8BB143685A
:10855000E03B072B02D80378072B0AD0064BD0E963
:108560000412D3E9000388429341BCBF034BC3E923
:108570000012002526E700BF100000201800002090
:1085800030B593B0182200210CA80AF092FA254DBC
:1085900006AC00220CA90023284605F02FFA01465C
:1085A00000283DD1182220460AF083FA0C9B07933D
:1085B00009F00EFF4FF47A72A0FB020302FB0131B7
:1085C0009DF834308DF82830C00B9DF8443040EAD7
:1085D0004140C90B13F00102CDE9080118BF012287
:1085E000049208AB0FCB8DE80F000EA894E80C00A6
:1085F00007F0D3FE119B012BCBD9C3F35E044FF4DC
:10860000004540F2E73000214FF47A720023E5FB89
:108610000401FDF7C5FD02460B46034805F02CFD9D
:1086200013B030BD700400202000002030B58BB0A6
:1086300001AC84E80E0042680492027C8DF814209C
:1086400094E8070006AD85E80B000F9A9DF83830D6
:1086500043EA4203099309480022002304A905F0D4
:1086600075F9002804DB064809F084FD10B10020EC
:108670000BB030BD0248FFF783FFF8E7700400201D
:10868000200000202DE9F041264E012333702648BA
:108690000022002305F042FB002807DB234D4FF0AA
:1086A000000833782BB9204805F004FB0020BDE812
:1086B000F08186F8008000F0CDF800F0060700F0A9
:1086C000CFF800F00600062802BF2B6843F008032D
:1086D0002B602C68062FC4F3C0044FF003000FD1A9
:1086E00000F0C4F820B92146032008F0F6FBD8E7D3
:1086F000002CD6D0032000F0BFF80028D1D1F2E73B
:1087000000F0B4F840B1032000F0B6F800B11CB19D
:108710002146032008F0E5FB2B6823F008032B60BB
:10872000BFE700BF9A2B002098040020781C00208F
:1087300082B06B46002200925A6093E80300024A1E
:1087400082E8030002B070477C1C0020072801D09B
:108750000C2807D1054B1B78002B0CBF00206FF0B5
:10876000850070476FF08500704700BF7C1C0020BB
:10877000034B1B78002B14BF6FF08500002070475F
:108780007C1C0020F0B5042885B05BD898B911B9DD
:10879000002005B0F0BD2D4C2D4B26681D6846F01D
:1087A00001032360002A4BD19E4214D1284B1B6841
:1087B000AB4210D1ECE7264B1D687ABB39BBC540F4
:1087C000EB07E5D4214D01232C68834024EA0306FE
:1087D0001C422E60DCD08DF800008DF801108DF861
:1087E000022009F0F5FD4FF47A72A0FB020302FBB0
:1087F0000131C00B40EA4140C90BCDE9020104AB95
:1088000013E90F0005B0BDE8F04000F08BB80F4C45
:1088100001232668834033432360C5E70B4F0124BF
:108820003E68844021B146EA04033B602C4304E0E7
:1088300026EA04033B6025EA0404054F3C60B3E7E5
:108840000124F3E76FF01500A3E700BF0C1D002023
:10885000101D0020014B1868704700BF0C1D002040
:10886000014B1868704700BF101D0020014B1968AC
:1088700008F01DBB0C1D0020014B196808F017BB48
:10888000101D0020212937B504460D4602D90020CD
:1088900003B030BD0428FAD801A8FEF70FFA00286B
:1088A000F5DB8542F3DA019B53F82530212BEED816
:1088B0004FF4CC7202FB04F00C2202FB0300014BCC
:1088C0001844E5E7383A03002DE9F74FDDE90CAB32
:1088D000DFF84C9007460C4615461AB10F4B1B6843
:1088E00049F8213004265FFA86F859F824104046EA
:1088F00008F0DDFA30B9013EF5D26FF0850003B023
:10890000BDE8F08FCDE900AB2B4622464146384604
:1089100008F0EBFA0028F2DDEDE700BF0C1D0020A7
:10892000841C002010B58AB06C4684E80F00002338
:108930000593064B049394E80F000AAC04E90F007A
:1089400004A807F0BDFD0AB010BD00BF304203000F
:1089500084B030B589B00CAC84E80F0000230193DB
:108960000CAD084B00930FCD02AC0FC495E803008B
:1089700084E80300684607F0A3FD09B0BDE8304075
:1089800004B07047384203000268034B9A420CBFA0
:1089900008300020704700BF3842030073B5194CFF
:1089A000194EB442254602D36FF0120008E02B683E
:1089B000DB68043433B9154C2368AB4211D1002075
:1089C00002B070BD9847C0F307238DF804008DF8FE
:1089D0000530C0F30743C0B28DF806300028E0D060
:1089E000E9E723B11B689B680BB1002098472B680F
:1089F00025609B68002BE2D0012002B0BDE87040EA
:108A0000184700BFA04F0300A04F0300141D002013
:108A100007B5094B01911B68834207D19DF80630C9
:108A200033B903B05DF804EBFFF7B8BFFFF7B6FF4B
:108A3000002003B05DF804FB141D002070B5094C44
:108A4000094D0A4EAC42234603D3BDE87040FFF700
:108A5000A5BF1B681B690434002BF3D03046984730
:108A6000F0E700BFA04F0300A04F0300118A0200EF
:108A700082B0F0B5254D91B00C4616A981E80C00E6
:108A80002B680646002B3DD01B68002B3AD01B6894
:108A9000002B37D0202200210DF11D000AF009F82B
:108AA00001238DF81C306368CDF82D30A368CDF814
:108AB0003130179BCDF835309DF8683021688DF83E
:108AC000393010229DF870308DF83A300DF11D00CC
:108AD00007F0F3FB2B680AADD3F800C00FCD6C464E
:108AE0000FC495E8030044F8040B07AF217097E822
:108AF0000E00DCF800403046A04711B0BDE8F04061
:108B000002B070476FF01200F7E700BF141D00209D
:108B100008B5044800F046FD002818BF6FF01500A6
:108B200008BD00BF518B0200084B1B780B2B4FF088
:108B300001000AD8984010F4CD6F05D110F4016FF0
:108B40000CBF0120002070470220704778030020EE
:108B50000A2808B5024613D00A4B0B491870FFF7D4
:108B6000E3FF02280AD10B78032A08BF43F0010370
:108B70000B70BDE80840054805F010BA0023F7E780
:108B800008BD00BF780300209B2B0020C4010020FB
:108B9000014B1B68184700BFD401002030B585B0D9
:108BA00004460D4610220021684609F082FF022388
:108BB0008DF802302A46044B01932146684606F0A0
:108BC0007BF905B030BD00BF918B020080B5054632
:108BD0000E461746984605F083FD034609F072FFDE
:108BE000DFF81890044649F80030424630463946CE
:108BF000A84754F8090001F035F900BF080000004B
:108C000008B50446EFF31183202383F31288BFF3E2
:108C10006F8F03F033FE204601F012F9024808F08E
:108C20007AFB08F0FAFCFCE7804803002DE9F047E6
:108C3000058B04462807904611D4022905F0070544
:108C400040F0CC80204608F08EFB78B10138218BB3
:108C5000042811D8DFE800F0C2106D8595000129C5
:108C60000CBF45F0100545F02005258388F31188D9
:108C7000BFF36F8FBDE8F08701F0070AAA4500F047
:108C8000A5800027B9463E46A368002B00F0BC80B3
:108C900041F00801218388F31188BFF36F8FA16829
:108CA000002900F0BA800D68002900F0B680D1F8E4
:108CB0000480334652462046C047002D76D02B68AC
:108CC00029461D46F0E701F007035A1F012A1BD869
:108CD000002221F00701062B276889B2C4E900228F
:108CE00009D13B4603E0628B013262831B68002B93
:108CF000F9D141F002012183204608F034FB00281D
:108D00007AD041F0200176E0042B0AD121F007014E
:108D100089B22183204608F026FB10B141F02001E2
:108D20002183218B01F0070AAA454FD00027B946BD
:108D3000AAE7236921F0070141F00601062DD3F8C7
:108D4000009021832DD1B9F1000F3FD041F00801EF
:108D5000218388F31188BFF36F8F3A492046C847B3
:108D600029E021F00701236941F0040189B2042DB3
:108D7000D3F804902183E6D000273E464FF0040A42
:108D800082E721F00701236941F0050189B2052D31
:108D9000D3F808902183D6D000273E464FF0050A2D
:108DA00072E700273E464FF0060A6DE72B4687E73D
:108DB000B9F1000FD1D1EFF31188202383F312888A
:108DC000BFF36F8F238B23F008032383258BEA06E1
:108DD0002ED525F01003238305F007056669218B46
:108DE000002EBFF670AF00232768C4E9003321F0DE
:108DF000070141F001012183218B01F0070AAA45F7
:108E00004FF000097FF440AF002F9CD041F00801E3
:108E1000218388F31188BFF36F8F002FC8D03D687E
:108E2000394633465246204608F0C9FA2F46F4E741
:108E3000AB067FF51BAF25F02003238305F0070564
:108E400000E700BFEB130300014B036000207047F5
:108E500040420300F0B40C4B0C4E5F6A0C4BB34223
:108E600003D36FF08500F0BC70475D68BD4209D345
:108E70001C693CB195F802C00579AC4502D1234686
:108E8000F0BC18472433EAE7181D00203105002004
:108E9000310500202DE9F047134CDFF85080DFF852
:108EA000509005460E461746444503D36FF08500A3
:108EB000BDE8F0876268D9F824309A4212D3A369DA
:108EC00083B190782979884205D13A4631462846BF
:108ED000BDE8F04718475279012A03D13A46314696
:108EE000284698472434DFE731050020310500206B
:108EF000181D00202DE9F0410B4CDFF830800546AD
:108F00000E461746444502D36FF0850009E06369B9
:108F10000BB92434F6E73A463146284698470028EC
:108F2000F7D1BDE8F08100BF3105002031050020F8
:108F300010B5044608F0C9FB10F1780F00D050B905
:108F4000054A204608F027FBD2F8C43023EA000384
:108F5000C2F8C430002010BD181D0020024B0022B2
:108F60001A605A60704700BFD31D002070B50B4BCC
:108F70000B4CA34201D3002070BD196A1E7F002252
:108F80000439D5B2AE4201D82433F2E7013211F8E8
:108F900032508542F5D10120EEE700BF31050020B7
:108FA0003105002008B509480378C3F341130A339B
:108FB00050F823303BB100F1080200F1100198474E
:108FC000C043C00F08BD1846FCE700BF181D0020B5
:108FD00004282DE9F14FDFF8A09004460F4616D083
:108FE00001282DD1DFF88C8098F8B93043B300F018
:108FF00061FD1F4D4D4520D2D5F820B04FF0000A3D
:109000002B7F5FFA8AF6B34204D82435F2E7FFF7E4
:10901000A5FFE7E70BEBC6060AF1010A307908F075
:1090200054FB0246307908F0B6FAD8F8C430002A6A
:1090300023EA0003C8F8C430E2DA002388F8B93024
:109040000B4D4D4508D30B4B1B6A6BB1394620467F
:1090500001B0BDE8F04F1847EB681BB13A46214616
:10906000284698472435ECE701B0BDE8F08F00BFF3
:1090700031050020181D00203105002073B5C4B251
:1090800063060D468DF8074007D02046FFF76EFFB8
:1090900078B10D4B93F8BA0058B10B4E204655B13C
:1090A00001F0CEFDF3691BB10DF1070108209847CF
:1090B000012002B070BD01F0EBFDF369002BF7D089
:1090C0000DF107010920F2E7181D002073B586781D
:1090D0008DF80060037942791C4C43EA0223ADF815
:1090E0000230C378304603F003038DF8043008F0F3
:1090F00052FAD4F8C430184205460BD0304600F07E
:10910000BBFC3046FFF714FF09F049F810B9962070
:1091100005F0A4FA684601F06FFD10F1780F03D056
:1091200010B1002002B070BD9DF8000001F0ECFD10
:1091300010F1780F01D00028F3D1D4F8C430012009
:109140002B4384F8B900C4F8C430EBE7181D0020A5
:109150002DE9F047A34EB36904460F461546FBB907
:10916000237803F01F03012B00F09D80022B00F0F9
:10917000048133BB94F900002A686178002834DA4E
:10918000062912D008292BD0D9B9012313705170A8
:1091900096F8C3305B0043F00103137002232AE109
:1091A00098470028DCD100200DE06288100A011FDA
:1091B0000129844605D9072803D8716AD2B20C78F0
:1091C0001CB96FF01500BDE8F0874E78664503D1F5
:1091D0009A4200F00B8101332144F0E70B780AE159
:1091E00096F8BA301370012305E101390829E8D84F
:1091F00001A353F821F000BF91920200C391020035
:109200009F920200C39102001D920200C3910200CE
:10921000C3910200C391020029920200A07801F0DC
:10922000D9FC0028BFD0CCE76388756A63BBFFF721
:1092300095FE638886F8BA30F369002BB3D06A498B
:1092400003209847AFE76B78042B10D0052B11D083
:10925000022B04D16F796388BB4208BF01202B78B1
:109260001D442B78002BEED10028AAD0DFE795F81B
:109270000380F4E76388BB42F1D1B8F1000FEED16F
:109280002846FFF723FFEAE7FF270020B846E8E774
:109290006388012B95D1002386F8C33083E7638868
:1092A000012B8ED1F8E796F8BA30D5F800C0002B24
:1092B00087D0756AA38894F804E02A4610780028BD
:1092C0003FF47FAF5178022904D192F80480F04531
:1092D00000F293800244F1E78CF800208CF8012022
:1092E000396060E7154494E00B2A7FF46AAF0027E9
:1092F0004FF0FF08C146BA4606E06B78042B0FD04A
:10930000052B21D02B781D442B78002BF5D1F36948
:1093100013B1514607209847002F7FF444AF50E720
:1093200095F80280A38895F803909845EAD1638860
:109330009945E7D1B8F1070F1CD806EB0803AA46F8
:1093400083F8BB900127DDE7A3884345DAD1A378F2
:109350004B450AD0AF78384600F08EFB3846FFF711
:10936000E7FDB0FA80F77F09CCE72846FFF7AEFEAD
:109370000746C7E7AA460027C4E794F900206378A8
:10938000002A18DA002B7FF41CAF24792D686306BD
:109390000AD02046FFF7EAFD00283FF412AF96F806
:1093A000BA30002B3FF40DAF2946204601F090FC67
:1093B00000236B70F2E6012B08D0032B7FF401AF82
:1093C0006388002B7FF4FDAE012103E06188002952
:1093D0007FF4F7AEA088FFF751FE00287FF4E3AEDC
:1093E000EFE600BF181D0020D21D002002282960D2
:1093F0007FF4F4AE4B883B60D5E694F900006278C8
:109400000028BFF671AF002A3FF466AF0A2A7FF446
:10941000D8AE2A78002A3FF4D4AE697804297FF4C4
:1094200061AFA9788B427FF45DAF072B96BF9B1984
:10943000002393F8BB308CF80030D4E613B5164CFB
:10944000237DF3B9E268A168019201AB802008F0A6
:10945000B0F8019AA3681344A360E3689B1AE36021
:109460006BB962B12369E2889A4208DD94F8C8209A
:1094700093FBF2F102FB11330BB90123237502B008
:1094800010BD00231A4619468020237502B0BDE89E
:10949000104001F063BC00BF181D002030B585B03E
:1094A000002302460D460193002858D1002935D1EA
:1094B00008220B460DEB020108F020F9002804DA1F
:1094C000802001F0BDFB05B030BD2A4C029A22601D
:1094D000039A626004F13802A2609DF90820BDF889
:1094E0000E302575002AC4E903550ADB802B04D908
:1094F000802001F0A5FB0020E3E713B1C4E90333AA
:10950000E1E7FFF74FFD0028DAD0E28823699A42AD
:10951000D4BFE260E360FFF791FFD4E7154CD4E9D4
:109520000215002D01AB04DC08F0E8F80028CADAC7
:10953000C6E72A4608F0E2F80028D9DB019AA368BA
:109540001344A360E3689B1AE360002BBBD104F1D2
:109550003803A360FFF726FD0028DCD1B0E78028A0
:10956000B1D1044BDA68002AD5D11B7D002BD2D1B2
:10957000A9E700BF181D0020054B064A9A62064A5B
:10958000DA62064A1A63064A58629A6100207047F6
:10959000181D002051910200558E0200F58E020028
:1095A000958E02002DE9F3410446474D47484FF0A0
:1095B000FF334FF0FF3204F083FA95F8B830002BF8
:1095C0007BD16B6A83B142482C62E8616E6A01F01C
:1095D000DFFC01F0CDFA041E10DA3C4804F0E8FA92
:1095E000204602B0BDE8F08100F0BEF8FFF7C4FFEE
:1095F0006B6A002BE7D14FF0FF34EEE700F07CFA06
:10960000041EEADB7378012B5AD1F379002B57D073
:109610000026684685F8C830ADF802308DF8046041
:109620008DF8006001F0E8FA041ED6DB802768465A
:109630008DF8007001F0E0FA041ECEDB25493046BB
:1096400001F092FC041EC8DB2249384601F08CFC74
:10965000041EC2DB204CDFF8848044451AD300206E
:1096600001F052FB041EB8DBD5F8C430802043F073
:109670000103C5F8C43001F047FB041EADDBD5F88B
:10968000C43043F48033C5F8C430012385F8B830C2
:109690000024A2E7276A0026227FF3B29A4201D86B
:1096A0002434DAE707EBC30257F83310107901F0DE
:1096B0005BFC01360028EFD09DE76FF077048CE764
:1096C0006FF0150489E700BF181D00200C0400206E
:1096D000D18F02009D940200310500203105002049
:1096E00030B51F4B8BB005AA03F1100518685968F7
:1096F000144603C40833AB422246F7D11B782370CB
:109700001022002101A809F0D4F9122200211548E5
:1097100009F0CFF9102101A808F0F4F800281BDDAA
:109720000828B8BF0820093801AB0E491A180020D4
:1097300012F8013F0AAC04EB131403F00F032833B3
:109740006B44013014F8144C13F8143C0C700828C6
:109750004B7001F10201EBD102480BB030BD00BFEC
:10976000A94803009D2B00202DE9F04F724B93F880
:1097700000B087B0BBF1000F03D0704807B0BDE860
:10978000F08F6E4C00264FF0011AB0463546B146B8
:1097900023783BB96A4B02349C42F3D1664A0123D9
:1097A0001370EAE76378052B1BD8DFE803F08E031C
:1097B000C38E1D39402304A88DF810B0ADF81230C7
:1097C0008DF814B007F06CFF40B1082304A8ADF881
:1097D000123007F065FF08B1ADF812B0BDF81230D5
:1097E000E37123781C44D3E7E378002BF9D1A37805
:1097F0006BB108F101085FFA88F8F2E76B689C42E8
:1098000007D024354F4B9D42F8D30020B6E74E4D8C
:10981000F8E7AB68002BECD0414620469847E8E7D4
:10982000002DF2D000222B7F9A42EED2296AA07836
:1098300001EBC2010B79984201D00132F3E7012715
:10984000E07800F003008DF81400207994F805C04A
:1098500040EA0C20ADF8120094F902000028FBB297
:1098600028DA07F110004FF0010C0CFA00F010EAB2
:109870000A0F26D143F080008DF8100004A8CDE92E
:109880000213019207F00CFFDDE90121039BC0B92F
:109890009DF81020A27012F0800F18BF10330A71CB
:1098A00018BFDBB24FF0010214BF9A40BA404AEA37
:1098B000020A96E70120B84010EA0A0F01D11846C3
:1098C000DAE70137102FBBD1B7E7032E1AD1FFF724
:1098D00007FF074650B1FCF787FC024630B110285D
:1098E000A8BF10223946A01C09F0D5F823786FF0E4
:1098F0000201E218091B04EB5303D14213D50136D0
:10990000F6B26EE7002EF1D1B9F1000F3FF47DAF52
:10991000A4EB090389F80230C3F3072389F8033065
:1099200089F80480EBE702F801BC13F8010902F89A
:10993000020DE2E7A14654E79C2B0020C80400205A
:1099400031050020310500203105002010B5094BFC
:1099500000211A461C78844204D15C6814B102EBE1
:10996000811010BD0131042903F14003F2D1002020
:10997000F7E700BFE41D00202DE9F34150F8283C33
:1099800010F82C6C103304460AD1036950F8202CCF
:10999000980736D5D2B9590715D5002344F8283C85
:1099A00054F8283C10330BD054E9077554F8148C44
:1099B00008F0F5FB00284FD02E48214608F0BEFBEA
:1099C00002B0BDE8F08143F00403236154F8241C85
:1099D00001AB304607F0EDFD10B16FF01503DDE788
:1099E000019A54F8243C134444F8243C54F8203C95
:1099F0009B1A44F8203C54F81C3C134444F81C3C8B
:109A0000CEE754F8241C01AB304601F023FA0028BD
:109A1000E3D1019D54F8243C2B4444F8243C54F8F1
:109A2000203C5B1B44F8203C54F81C3C2B4444F87D
:109A30001C3C002DB1D0304601F0B0FAB5FBF0F37C
:109A400003FB1055002DA8D154F8203C002BA4D0C6
:109A5000304601F047FAA3E744F8180CA4F11000CF
:109A600004F028F9002DABD0424639463046A847CD
:109A7000A6E700BF8018002010B5EFF31184202363
:109A800083F31288BFF36F8FFFF760FF50B1436815
:109A9000103307D16FF08B03436000F12C010448B1
:109AA00008F04CFB84F31188BFF36F8F10BD00BF2B
:109AB00080180020F8B50E4C04252027EFF31186FE
:109AC00087F31288BFF36F8F6368103307D16FF08D
:109AD0008B030848636004F12C0108F02FFB86F328
:109AE0001188BFF36F8F013D04F14004E6D1F8BD4A
:109AF000E41D00208018002070B50A4C0A4E002595
:109B00003146204608F0EFFA0122A4F11000114678
:109B1000013508F06AFA042D04F14004F0D1002068
:109B200070BD00BF101E00207999020030BFFFF702
:109B3000FDBF00BF2DE9F0410B4EDFF8348006EB8E
:109B40000807CC1B054632460849204608F0A3FF0B
:109B5000A01942460021083C08F0ABFF2C6707F132
:109B60000800BDE8F08100BF00000000B030030035
:109B700004000000054B9A699B689A421FBF044A83
:109B8000536843F080535360704700BF302B002070
:109B900000ED00E0134B9A6A12F0007F9A6A14BF3E
:109BA0001E201D2012F0807F9A6A18BF1F2012F419
:109BB000002F9A6A18BF212012F4802F9A6A18BFCA
:109BC000222012F4003F9A6A18BF232012F4803F2B
:109BD0009A6A6FEA02426FEA12429A6218BF242020
:109BE000704700BF00ED00E010B5194B0246986ABF
:109BF0009C6A10F4805F14BF1720162014F4006FC5
:109C00009C6A18BF1820A40509D5986B986A0004AF
:109C100004D51AB19A6A22F400429A6219200C4BB8
:109C20009A6A12F4806F9A6A18BF1A20D2050CD46F
:109C30009B6A13F4005F18BF1C20054A936A43F423
:109C40007F43936200230B7010BD1B20F5E700BF1C
:109C500000ED00E010B51C4B0246986A9C6A10F0BB
:109C6000100F14BF1120102014F0080F9C6A18BFA9
:109C70001220A40709D5586B986A000604D51AB1BA
:109C80009A6A22F080029A6213200F4B9A6A12F0AD
:109C9000010F9A6A18BF142012F0200F9A6A18BF99
:109CA0001520D40658BF9B6A074B9A6A920642BF9A
:109CB0005A6A22F400525A629A6A42F0FF029A6289
:109CC00000230B7010BD00BF00ED00E070B5444BE9
:109CD0005B689CB00646C3F30803002585F3118832
:109CE000BFF36F8F02F07F40B0F17F4F11D102F0D0
:109CF0000C0008280DD010074CBF0E46012500228D
:109D0000033B8DF80720032B05D8DFE803F01E5C2A
:109D100060592E46F3E700249DF807309BB968226E
:109D2000314602A808F0B7FE099B002D53D0C3F3BB
:109D3000080222B96FEA53236FEA4323099302A969
:109D4000204607F04EFC1CB070BD254BDA6A910727
:109D5000E1D4DA6A002ADEDBDA6A5200DBD55A691E
:109D6000B16942F480725A61BFF34F8FBFF36F8FB6
:109D70005A6931F8021C22F480725A61BFF34F8F86
:109D8000BFF36F8F4DF60272914209D09A6AD2B238
:109D900042B10DF107010120FFF75CFF0446BBE76C
:109DA0003468B9E79A6A12F47F4F05D00DF10701C4
:109DB0000120FFF719FFF1E79B6AB3F5803FAAD3B3
:109DC000FFF7E8FEEAE70DF107010020E4E70DF1F7
:109DD00007010020EDE723F4FF7323F00103ADE753
:109DE00000ED00E0044B5A6942F010025A615A69D2
:109DF00022F008025A61704700ED00E0EFF308809E
:109E0000EFF3098101B57246FFF760FF01BD00BFA6
:109E100002F05EFD202080F3118808484FF40061B5
:109E2000401880F30988EFF314800221084380F37F
:109E30001488BFF36F8F00F0CDF80000C03300200E
:109E4000BFF34F8F0549064BCA6802F4E062134323
:109E5000CB60BFF34F8F00BFFDE700BF00ED00E018
:109E60000400FA05084B9B6883420BD1EFF305838E
:109E700043B1064B5A6842F080525A605A6A22F443
:109E800000425A6204F032BC302B002000ED00E0AA
:109E900020498A6882F8BDE04FF030001044EFF3AB
:109EA000098C80E8F01F1EF0100F03D102F17C0036
:109EB00080EC108A202080F31288BFF36F8F164F3A
:109EC0004FF000668A698A603E60106F134C206014
:109ED00092F9BDE0506F0023536780F311881EF0A4
:109EE000100F03D00023E1EE103A03E002F17C00F2
:109EF00090EC108AEFF3148323F0040383F31488A7
:109F0000BFF36F8F02F1300090E8F01F8CF30988E7
:109F100070470000302B002004ED00E0E41E00201C
:109F20001EF0040F0CBFEFF30880EFF30980816986
:109F300011F8021C0229FFD001B5724607F057FB49
:109F400001BD00BF40B2002807DB044A41090123DC
:109F500000F01F00834042F82130704700E100E02C
:109F600040B200280CDB4309064900F01F002033F3
:109F70000122824041F82320BFF34F8FBFF36F8F40
:109F8000704700BF00E100E0054B420900F01F00F0
:109F900053F82220012303FA00F01040704700BF5D
:109FA00000E100E040B20028A8BF00F1604001F1EC
:109FB0000101B8BF064B4FEA4111ACBF00F561404B
:109FC00000F00F00C9B2B4BF195480F800137047F5
:109FD00014ED00E0144A08B5144B22F07F029A6099
:109FE000BFF34F8FBFF36F8FD3F8882022F4700236
:109FF000C3F88820D3F8882042F4A002C3F8882050
:10A000004FF04042C3F83422BFF34F8FBFF36F8F3E
:10A010000023E1EE103A03F0B1FB04F09FFC00F0E6
:10A020007BF803F0EBFB00BF0060020000ED00E0F6
:10A0300042F8203C009B42F81C3C019B42F8183C33
:10A040000A49029B42F8143C4FF0807342F8043CEA
:10A0500021F00101002342F8081C203A43674FF425
:10A060007D430265C0F8BC30704700BFCD8B020055
:10A07000104B9B6883421AD1EFF30580B8B9EFF318
:10A080001181202282F31288BFF36F8F1A7B22F096
:10A0900002021A73EFF3148323F0040383F314888A
:10A0A000BFF36F8F81F31188BFF36F8F70476FF02D
:10A0B00015007047302B002000B50E4615460023D2
:10A0C000E1EE103AEFF3148323F0040383F31488D2
:10A0D000BFF36F8FBFF36F8F084B026F9860084B11
:10A0E0001A602C4686F309880020064B98472046C4
:10A0F000002100220023044C204700BF302B002009
:10A10000E41E00200D160300CD8B0200014B10222F
:10A110001A61704700ED00E0044800232021C218B6
:10A120000133302B82F80013F9D1704700E100E0D1
:10A1300008B5EFF30583064A103B02EBC30152F862
:10A14000330049688847BDE80840FFF713BD00BFEA
:10A15000902E0300024B034A0348012100F066B829
:10A16000000004200000002040420300084AC2F81A
:10A1700098000B6823F01F03034343F01003C2F859
:10A180009C308B6843F00103C2F8A030704700BFD9
:10A1900000ED00E02DE9F043DFF8608085B00E4669
:10A1A0001F4604464FF00009B14523DA6068D8B174
:10A1B0003FB1411E08421BD11F2819D923681942FB
:10A1C00016D12368019307F044FAA368034303936D
:10A1D000D8F89050C5F30725D0B2013DA84207D862
:10A1E00001A9FFF7C3FF421C09F101090C34DBE7A9
:10A1F0006FF01502104605B0BDE8F08300ED00E0F9
:10A20000044B0522C3F89420BFF34F8FBFF36F8F29
:10A21000704700BF00ED00E0BFF35F8F024B0022EC
:10A22000C3F89420704700BF00ED00E010B5034C68
:10A2300001232278FFF7AEFF207010BDAF2B002066
:10A240002DE9F043534B544CD3F890302568C3F3B9
:10A2500007239D4285B000F29A80FFF7DDFF0020C2
:10A260000C2685421AD14D4C4D4F25706846FEF79D
:10A27000EBFDDFF82081DFF82C9106460025AE4289
:10A2800013D1237843490020D1F89020C2F307224C
:10A29000934276DBFFF7B4FF002042E0616806FBE3
:10A2A0000011FFF763FF0130DBE7009800EB0511B9
:10A2B0004FEA051CCB683B40B3F5000F48D00AD8E5
:10A2C000B3F5001F30D0B3F5800F36D0B3F5801F43
:10A2D00010D00135D3E7B3F1807F42D0B3F1007FD6
:10A2E000F7D150F80C3088684A6807F0B2F940F4AA
:10A2F000802009E050F80C3088684A6807F0A9F916
:10A3000040F0885040F43020CDE901230390D8F884
:10A3100090302078C3F30723013B98422AD96FF08D
:10A32000150005B0BDE8F08350F80C3088684A6825
:10A3300007F08FF940EA0900E6E750F80C3088682A
:10A340004A6807F086F940F0E06040F40030DBE74F
:10A3500050F80C3088684A6807F07BF940F082704A
:10A36000D2E750F80C3088684A6807F072F940F07C
:10A370008870C9E701A9FFF7F9FE2378013323703C
:10A38000A7E7C1F89830C1F8A00001337CE74FF08F
:10A39000FF30C6E700ED00E04C420300AF2B002089
:10A3A0000000F0FF0000081108B50649064821F03A
:10A3B0000701C1F1005202F5802206F06DFF002076
:10A3C00008BD00BF77520020E81E0020044A012388
:10A3D000C2F840354FF080420020C2F8783570470F
:10A3E00000E0014020B1034B800143F00103184716
:10A3F000704700BFC03003007FB50D4D0D4E4FF0CC
:10A40000FF324FF0FF3301A9284603F0F7FA002886
:10A41000F5D1094CB442F2D2236813B1019A9342A8
:10A4200003D1D4E9013101A898470C34F2E700BF09
:10A4300020040020B030030080300300F0B585B068
:10A44000DDE90C5417461E46019023469DF828006E
:10A450008DF808002C432A468DF80910ADF80A70D3
:10A46000039608D008F02EFB074908580749884290
:10A4700004BF00221346064801A903F067FA00EA68
:10A48000E07005B0F0BD00BF08000000801800209B
:10A4900020040020020600F07F0312D5082B05D10E
:10A4A000010700F00F0306D50E48704710F0780F33
:10A4B00012D100F00F034C2000EB43100A4B18445C
:10A4C0007047082B05D1020700F00F0306D5074897
:10A4D000704710F0780FF6D000207047044800EB6A
:10A4E0004310704740200020F41E0020602100200F
:10A4F000602000200149024807F020BE1C1F0020F8
:10A50000001600200146014807F064BDB804002091
:10A5100002480022002303F09BBB00BFB8040020C8
:10A5200013B5124800F0C4FE114B98421AD11148DD
:10A5300002F0D0FF0024104803F012F80F49104831
:10A5400000944FF0FF334FF4806203F02DFD0D496E
:10A550000B4807F02AFE0C480C4907F0C4FD2046C2
:10A5600002B010BD6FF00400FAE700BF75A702004B
:10A570000000AD0BDD4803006C420300C02F00203B
:10A5800000160020CF4803001C1F002091A80200E5
:10A5900010B50E49BFF35B8F002351E8002F012A4D
:10A5A00003D141E800300028F7D1BFF35B8F0CD115
:10A5B00051F8044C1439204606F0B3FF783004D12A
:10A5C0002046BDE8104006F088BF10BD141F0020D3
:10A5D00038B5002464F07F00C0B2FFF75BFF0134A0
:10A5E00007F047F8082CF5D10E4D0024E0B2FFF734
:10A5F00051FF036903B90561013407F03AF8082CEB
:10A6000005F14005F2D1084807F033F8074BD3F8BD
:10A610007C2212B9064AC3F87C22064807F029F8C2
:10A62000002038BD8425002040200020F41E00209A
:10A63000842100206021002010B5054CFFF768FF41
:10A6400020B14168204607F0E6FBF7E710BD00BFE8
:10A65000F003002007B500230E48002201A903F0F3
:10A6600047F990B1FFF7E8FF0A480022002301A94B
:10A6700003F03EF938B90198042340600374FFF7F2
:10A6800041FFFFF737FF002001E00198406003B071
:10A690005DF804FBF0030020022810B511D8094B27
:10A6A0001C5CFFF7D7FF60B1002202740472FFF751
:10A6B00029FF054B93F824301BB1BDE81040FFF78C
:10A6C00019BF10BDDA480300F41E0020F8B58778E2
:10A6D00006463846FFF7DEFE3B06F578044612D5FF
:10A6E000002D43D1FFF7B6FF034600283ED00122DC
:10A6F000A5770274032202739C60FFF703FFBDE895
:10A70000F840FFF7F7BE4DB1012D2FD1FFF7A2FFA3
:10A71000034658B3657705740573EDE7FFF79AFFB5
:10A7200020B3B278124B12F0800F02F0080111D062
:10A7300041B1D3F8A836E360012303740223037305
:10A740008460DAE702F00F02142101FB0233D3F830
:10A750000836F0E711B1D3F8A837ECE702F00F02A2
:10A76000142101FB0233D3F80837E4E7F8BD00BF3A
:10A7700000700240F0B5064689B01422002103A8FB
:10A7800008F097F93378013B052B21D8DFE803F077
:10A790007A0314146A1603238DF814300024FFF78B
:10A7A00059FF0346A0B1047400F10802DDE9050178
:10A7B00082E8030018461DE00423EDE7B778384629
:10A7C000FFF768FE837A044623B1013B022B43D98D
:10A7D00009B0F0BD3B06F57813D5002DF8D1FFF791
:10A7E00039FF03460028F3D00122A5770274032223
:10A7F00002739C60FFF786FE09B0BDE8F040FFF7EA
:10A8000079BE55B1012DE3D1FFF724FF034600289F
:10A81000DED0657705740573EBE7FFF71BFF07468E
:10A820000028D5D00123037402230373846004F14C
:10A830000C01B07806F07EFF134AE168B2F88C3262
:10A840008B4206D95B1AA2F88C3201F07FF83846A9
:10A85000D0E7A2F88C52FAE7304609B0BDE8F040E4
:10A86000FFF734BF01A801F04FF89DF80530052B24
:10A8700004D19DF8043013F0600FA9D0034B059369
:10A8800001248CE702248AE7F41E002060200020C7
:10A890002DE9F043A64CDFF89C9285B08046FFF787
:10A8A00037FE074610B905B0BDE8F08394F82530AF
:10A8B0003A7C3BB9002A00F0868079689D4807F011
:10A8C000AAFAECE7042A42D8DFE812F07D0005007E
:10A8D0000001160140013B7BBD68032B37D8DFE840
:10A8E00003F0023D5A5F6E69934B00223260726042
:10A8F000D3F880143170D3F884147170D3F88814AD
:10A90000D3F88C0441EA00217180D3F89014D3F875
:10A91000940441EA0021B180D3F89814D3F89C3410
:10A9200041EA0323F3800823EB6030687168834BAE
:10A9300003C311462B68687A984796F90030002BBC
:10A9400008DBF38833B1A4F88C3200F0FFFF79689C
:10A950004846B4E70023A4F88C32F8E76B7F002B5D
:10A96000F5D02B7F002BF2D000266E774FF0FF3210
:10A9700073482E774FF0FF3306F08EFE6B6901931C
:10A980006B68CDE9023601A9687A00F0E7FC6C48F3
:10A9900006F084FEDBE72B680121687A9847D6E74A
:10A9A000AB7A6BB9EB7F5BB965484FF0FF324FF084
:10A9B000FF3306F071FE00F0CFFF614806F06EFE37
:10A9C0002B680221E9E73A7A042AC0D8DFE802F0CE
:10A9D00059032367730000F02BFC05460028B6D10D
:10A9E00000F066FBBFF35B8F5649012351E8002F4F
:10A9F000002A03D141E800300028F7D1BFF35B8F74
:10AA0000A5D141F8085C41F8105CE0696361143934
:10AA100006F00CFD9BE7002565F07F00C0B2FFF754
:10AA200039FD037A13B1407A01F0FAF80135082DA7
:10AA3000F2D194F854311BB194F8550101F0F0F8BB
:10AA40000025E8B2FFF726FD037A13B1407A01F042
:10AA5000E7F80135082DF4D194F874321BB194F85D
:10AA6000750201F0DDF8002000F0C6FB012384F838
:10AA700025302368002B3FF46AAF0021022098475D
:10AA800065E7002584F8255001F030F8FFF780FDD8
:10AA90002368002B3FF45BAF29460420EFE7002B2F
:10AAA0003FF455AF00F0CEFB2368002B3FF44FAFCF
:10AAB00000210520E3E72268002A3FF448AF002B7D
:10AAC0003FF445AF00210620904740E708F110050C
:10AAD0004FF0FF334FF0FF32284606F0DDFDFFF761
:10AAE00077FD284606F0DAFD58F8283C002B3FF4A5
:10AAF0002EAF00210120C2E794F874327BB101250A
:10AB000084F8895284F88852FFF7A4FD38B10E4AC0
:10AB1000057405738260FFF7F5FCFFF7EBFC58F84E
:10AB2000283C002B3FF413AF00210A20A7E700BF09
:10AB3000F41E0020F003002000700240F81E0020E8
:10AB40002C1F0020141F00206021002007F0C7F8F0
:10AB500000F0CCFF00F0A2FAFFF76EFDFFF738FD22
:10AB600007F0B6F8014800F0A3FBF0E675A7020075
:10AB700038B5164D95F824402CBB05F1380007F088
:10AB8000A1F9204601F0A0F922460121E861272021
:10AB9000FFF708FA07F09CF8FFF71AFD044610B912
:10ABA000012385F824300A4B1B680BB1FFF7A2FC88
:10ABB0004FF08043D3F83834DB0702D50020FFF78D
:10ABC0006BFD204638BD0024FBE700BFF41E0020CB
:10ABD000B8040020074B93F824203AB193F82530AD
:10ABE000002B14BF00206FF0120070476FF01200AE
:10ABF000704700BFF41E002038B5104B93F8243086
:10AC00000446C3B105782846FFF744FC10B96FF03D
:10AC1000150038BD457223798372638843602078BC
:10AC2000618810F0080F02D14B1E0B42EFD106F0E5
:10AC30007CFD0020EDE76FF01200EAE7F41E002033
:10AC400038B5124B93F824200546CAB193F8253045
:10AC5000B3B1FFF71FFC0446A8B1837A012B12D0D1
:10AC600007D9023B012B07D96369A3610020E0608B
:10AC700038BD00F077FEF7E7284600F019FEF3E74D
:10AC80006FF01200F4E76FF01500F1E7F41E0020FA
:10AC900038B50E4B93F82420054682B193F8253041
:10ACA0006BB1FFF7F7FB68B115F008040AD128462D
:10ACB00000F020FE284600F0EBFF204638BD6FF084
:10ACC0001200FBE76FF01500F8E700BFF41E00204C
:10ACD00038B50C4B93F8242005460C4662B193F826
:10ACE00025304BB1FFF7D6FB48B144B1284600F000
:10ACF000E7FD2070002038BD6FF01200FBE76FF019
:10AD00001500F8E7F41E002070B5134E96F82430B5
:10AD10000446C3B1FFF7BEFB0546B8B1230705D40F
:10AD2000204600F0E7FD204600F0B2FF2B7A83B901
:10AD300001232B7296F825300BB9002070BD2046F8
:10AD400000F06EFFF9E76FF01200F7E76FF0150003
:10AD5000F4E76FF07700F1E7F41E00202DE9F043EF
:10AD6000DFF8EC801E4698F8243085B00746894607
:10AD70001546002B61D098F82530002B5DD00306D6
:10AD80005ED5FFF787FB0446002859D0037A002BD5
:10AD900056D04FF0FF334FF0FF3208F1380006F085
:10ADA0007BFCA37F4BB108F1380006F077FC6FF015
:10ADB0000A04204605B0BDE8F083A37AC5B13BB3D1
:10ADC0000123A3774FF0000801A93846CDE901958A
:10ADD000CDF80C8000F0C2FA1B4B984229D084F8C1
:10ADE0001E801EBB6FF00404184806F057FCE0E715
:10ADF000E27F02B1E577002BE2D100F0B9FD874296
:10AE0000DED000F0A9FD114806F048FC0024D0E790
:10AE1000B8F80A30AB42F0D96268B5FBF2F302FB36
:10AE20001353002BE9D10123E377E6E7C6F800804E
:10AE3000D8E706B135600024D6E76FF01204B8E712
:10AE40006FF01504B5E700BF0000AD0B2C1F00200C
:10AE5000F41E00202DE9F0411D46204B174693F8C3
:10AE600024200E46002A33D093F8253083B30306FE
:10AE700031D401B97FBBFFF70DFB044658B3037A09
:10AE80004BB34FF0FF3316484FF0FF3206F004FC8F
:10AE9000E368BB42984628BFB84646B93FB905B1FA
:10AEA0002B600F4806F0FAFB0020BDE8F081A16995
:10AEB0004246304607F0EFFDA3694344A361E368CF
:10AEC000A3EB0803E360002DEBD0C5F80080E8E7B2
:10AED0006FF01200E9E76FF01500E6E7F41E0020BE
:10AEE0002C1F002070B51E4D95F82420034682B318
:10AEF00095F825206AB31B062ED4FFF7CBFA04463B
:10AF000050B3037A43B34FF0FF334FF0FF3205F1F4
:10AF1000380006F0C1FBE368B3B901266369267700
:10AF2000A361637F83B1FFF795FB30B905F138006A
:10AF300006F0B4FB6FF00B0070BD067484600673FE
:10AF4000FFF7E0FAFFF7D6FA064806F0A7FB002065
:10AF5000F2E76FF01200EFE76FF01500ECE700BFCB
:10AF6000F41E00202C1F002010B5084B93F824304D
:10AF70000C462BB1FFF78EFA28B10460002010BDFB
:10AF80006FF01200FBE76FF01500F8E7F41E0020E9
:10AF9000014B1860704700BFF41E002008B5074B36
:10AFA00093F8243023B1FFF775FA20B1406808BD4B
:10AFB0006FF01200FBE76FF01500F8E7F41E0020B9
:10AFC0004FF08053D3F83021082A06D1D3F834311A
:10AFD000052B04D8034AD05C70470020704701203D
:10AFE000704700BFDE480300064B10F0800FA3F14E
:10AFF000D80208BF134600F00F00182202FB0030F1
:10B00000704700BF9C280020EFF31180202383F3BA
:10B010001288BFF36F8F0A4BD3F8001C032261B96B
:10B0200049F27531C3F8001CC3F8142DC3F8001C95
:10B0300080F31188BFF36F8F7047C3F8142DF7E7C3
:10B0400000E00640EFF31180202383F31288BFF362
:10B050006F8F0A4BD3F8001C61B949F27532C3F8FF
:10B06000002CC3F8141DC3F8002C80F31188BFF323
:10B070006F8F70470022C3F8142DF6E700E00640FA
:10B080004FF08053D3F83031082B02BF024B00221F
:10B09000C3F81C2C704700BF00700240024A002316
:10B0A0001360024A137070477C290020B42B0020E3
:10B0B00008B54A4B4FF40062C3F80024FFF780FF45
:10B0C00008B1FFF7A1FF4FF08053D3F83031082BC0
:10B0D00018D1EFF31180202383F31288BFF36F8F11
:10B0E0003F4BD3F8001CC02200296ED149F27531C4
:10B0F000C3F8001CC3F8142CC3F8001C80F311889B
:10B10000BFF36F8F354B0122C3F80025D3F800241D
:10B110001205FBD54FF40062C3F800244FF08053B2
:10B12000D3F83031082B17D1EFF31180202383F3AC
:10B130001288BFF36F8F2A4BD3F8001C002947D128
:10B1400049F27532C3F8002CC3F8141CC3F8002C64
:10B1500080F31188BFF36F8FFFF732FF30B1FFF735
:10B1600071FFFFF72DFF08B1FFF74EFF4FF080533F
:10B17000D3F83031082B194B0AD140F2E372C3F8EF
:10B1800000284022C3F80428BFF36F8FBFF34F8F0E
:10B190008022C3F81C250122C3F83025114B40F250
:10B1A000FF121A60104B00211960104B1970FFF745
:10B1B00067FF0F4B19700F4B02221A70FFF700FF49
:10B1C00050B1BDE80840FFF73DBFC3F8142C95E728
:10B1D0000022C3F8142CBBE708BD00BF007002407A
:10B1E00000E006407829002074290020B02B0020C0
:10B1F000B22B0020B42B0020094B002210B51A708E
:10B20000084A094B094C002808BF1346C4F800330C
:10B210002720FEF797FE0123C4F8043510BD00BFB8
:10B22000B32B0020FDFFDF01FDFFFF010070024096
:10B23000034B1878012894BF00200120704700BFFD
:10B24000B42B002010B54FF0FF324FF0FF331548FC
:10B2500002F064FDEFF31181202383F31288BFF322
:10B260006F8F114B1B7803F0FF0483B10F4BD3F8A2
:10B27000002412F400720AD10120C3F82C05D3F87F
:10B280002C05D3F80004800502D5C3F82C25002432
:10B2900081F31188BFF36F8F024802F00BFD204647
:10B2A00010BD00BFA8040020B32B00200070024096
:10B2B000F8B51C4B1C7894BB1B4A106001221A7015
:10B2C00040F2FF17264664F07F0514F0080FEDB238
:10B2D00014BF39464021284606F027FA2846FFF7D2
:10B2E00083FE0134092C867506730661EBD10024B8
:10B2F00040F2FF17254614F0080FE6B214BF394696
:10B300004021304606F011FA3046FFF76DFE013459
:10B31000092C857505730561EDD10448F8BD044815
:10B32000FCE700BFB42B00207C2900200000AD0BFF
:10B330000500AD0B084B10F0800F00F00F0114BF9B
:10B34000D3F81025D3F8142501238B40134214BFE2
:10B3500001200020704700BF007002402DE9F84333
:10B360000246EFF31187202383F31288BFF36F8F18
:10B37000030703D1184B1B78834229D1174B184E72
:10B380001C683568104606F0C8F9E443A4B24FF0D3
:10B3900001092C4309FA00F814EA08041AD11046EE
:10B3A000FFF722FE80F80C90034607C91C6183E872
:10B3B00007009C750B4B0C4845EA08058022356058
:10B3C000C3F8042187F31188BFF36F8FBDE8F883BA
:10B3D0000648F7E70648F5E7B22B00207829002059
:10B3E0007429002000E100E00000AD0B0A00AD0B65
:10B3F0000B00AD0B10F0080F074B06D0D3F8C004BC
:10B4000010F4803F18BF0020704700F00F0000F5D7
:10B41000947053F820007047007002402DE9F74FF8
:10B42000AB4BAC4ED3F85421DAB10022C3F854210F
:10B43000D3F80413890214D58DF80420D3F82025FD
:10B44000ADF80620D3F8C034002B336814BF4FF09A
:10B4500001224FF48072134333609F4B01A81B6895
:10B4600098479B4BD3F8604134B10022C3F8602168
:10B47000D3F86C44C3F86C44D3F828214AB10022B5
:10B48000C3F82821954B187806F047F9012383402B
:10B490001C43DFF86482924F98F8005098F90090AE
:10B4A00015F0080143D1B9F1000F05F00F032EDAB2
:10B4B0008C4A52F8230020B342F82310142253433D
:10B4C00003F1804303F51C33D3F80836864A11781C
:10B4D00003F001034B401370FFF7D2FD834802F0E5
:10B4E000E9FB2846FFF780FD837D032B37D12846F3
:10B4F00006F013F9012303FA00F03B6823EA000386
:10B500003B60DFF8D4A101254FF006095DE0784AE1
:10B5100052F823000028F4D042F823101422534399
:10B5200003F1804303F51C33D3F80837CEE7B9F1B4
:10B53000000F674B09DBD3F85021002AE1D000222D
:10B54000C3F85021D3F8A837C0E7D3F82C21002A3C
:10B55000D7D00022C3F82C21D3F8A836B6E7037B56
:10B56000DBB9284606F0D9F8012303FA00F03B685E
:10B57000B9F1000F23EA00033B6001DA882DC0D146
:10B5800006238DF8043000238DF80730524B8DF8D8
:10B5900006501B6801A89847B3E7002DB1D14C4B6A
:10B5A0000122DA64ADE794FAA4F03268B0FA80F0D0
:10B5B00005FA00F31A430F28326024EA03043A68BC
:10B5C00040F39C80134200F0A980002CEBD1404B4B
:10B5D000D3F800215AB1C3F80041464B1C703F4BD1
:10B5E0001C70012301933C4B01A81B689847384B02
:10B5F000D3F85821002A2ED00022C3F85821D3F8BE
:10B600000044C3F80044E30508D53A4B01221A7000
:10B6100002230193304B01A81B689847A50508D564
:10B62000344B00221A70032301932B4B01A81B6893
:10B63000984760050FD52F4B1A7862B100221A7017
:10B64000234B0122C3F808259A6504230193224B5A
:10B6500001A81B6898471E4BD3F85C3103B3234BFA
:10B660009B681BB998F80030590619D0184B002276
:10B67000C3F85C21D3F88034184A23F07F03137099
:10B680003B6823F001133B60336823F4803343F0BD
:10B6900001033360052301930F4B01A81B689847F2
:10B6A0003A6833681A4200F0EB8010480022002309
:10B6B00002F034FB002840F0E380054BD3F82C3532
:10B6C000002B7BD0094803B0BDE8F04F02F0F2BA7E
:10B6D00000700240782900207C290020B22B002035
:10B6E0007429002008710240B02B0020A80400201B
:10B6F00030710240B32B0020B12B002013407FF4A7
:10B7000064AF60F07F018DF804908DF806108DF81D
:10B710000730DAF8003001A8984756E7A0F1100189
:10B720008DF804908DF806108DF80750F1E749F078
:10B7300080052846FFF758FC4368B0F814A001685C
:10B740009A4528BF9A4601F06043B3F1005F044672
:10B7500004D05448524607F09EF952492268636863
:10B7600052442260A268A3EB0A03D20768B2636066
:10B7700053D5BAF1000F52D1002323734FE0114685
:10B780004FF0000A604545D1003B18BF0123002A55
:10B7900042D0504540D9012303FA09F32BEA0303B1
:10B7A0003B6006238DF804303F4B8DF80650022293
:10B7B0001B68A2758DF8072001A89847D7F800B03C
:10B7C00033681BEA03093FF47DAF19F0012314BF6E
:10B7D00093FAA3F999FAA9F9B9FA89F9B9F10F0F0E
:10B7E000A5D9A9F11005EDB22846FFF7FDFB0446E7
:10B7F0002846FFF7FFFD6368B4F814C0226898423A
:10B80000BDD81B1A00EB020E11466360C4F800E0BD
:10B810008246B7E70023BAE768B2002BACD04FF0FE
:10B820008053D3F83031082B02BF204B8222C3F85B
:10B830001C2C336888F80050012202FA09F923EA27
:10B8400009033360236915F0080F53442361174B34
:10B8500019D1002805F00F054FF0140000FB05304A
:10B86000A9BF0A3503EB8503C0F80017C0F804A789
:10B87000AFBF43F82520C0F80016C0F804A65A60F0
:10B8800003B0BDE8F08F0028B5BFC3F8A016C3F819
:10B89000A017C3F8A4A6C3F8A4A7B4BF5A629A64B9
:10B8A000EEE700BF842700207C29002000700240C2
:10B8B000024B40F48070C3F81805704700700240D6
:10B8C000030713D400F00F0310F0800F084A0BBFDA
:10B8D00003F5887303F5847302EB830252F82300A7
:10B8E00008BF5068003818BF01207047002070471B
:10B8F00000700240034BC3F80C0540F48070C3F89D
:10B900000C057047007002400023036043600E4B3B
:10B91000D3F880240270D3F884244270D3F88824AA
:10B92000D3F88C1442EA01224280D3F89024D3F851
:10B93000941442EA01228280D3F89824D3F89C34EC
:10B9400042EA0323C380704700700240014B01228A
:10B95000DA64704700700240014B01221A6570479B
:10B9600000700240014B01225A657047007002408E
:10B97000014B1878704700BFB22B002010B502466B
:10B98000EFF31184202383F31288BFF36F8F05F048
:10B99000C4FE0B49012303FA00F00B6823EA0003FD
:10B9A0000B6012F0080101BF02F00F02054B02F517
:10B9B000947243F8221084F31188BFF36F8F10BD87
:10B9C0007829002000700240F7B50146EFF3118599
:10B9D000202383F31288BFF36F8FFFF705FB064622
:10B9E000084605F09AFE012211F0800F02FA00F2DB
:10B9F0002D4818D1036832EA03040AD00846FFF73D
:10BA0000BDFF0323B37585F31188BFF36F8F03B0B8
:10BA1000F0BD2649347323EA020303600B6823EA6E
:10BA200002030B60EDE70B0715D48029204B2FD0C4
:10BA300001F00F0404F2DA346400C3F80048D3F8CC
:10BA40000448D3F80478E4B244F002043C43C3F859
:10BA50000448D3F80438154F04683B6864EA030CC3
:10BA60001CEA020FCFD013433B6000233373032340
:10BA7000B3758DF807300F4B8DF8061024EA0204D9
:10BA8000062204601B688DF8042001A89847BAE7D5
:10BA900040F2B474C3F80048D3F80448D3F80478EB
:10BAA000E4B244F00404D1E774290020782900208E
:10BAB000007002407C29002038B50446094D4FF043
:10BAC000FF324FF0FF33284602F028F92046FFF7F7
:10BAD0007BFF284602F0EEF8034B8022C3F80421D6
